{
	"data": {
		"bytecode": {
			"linkReferences": {},
			"object": "610140604052633b9aca00608052600a60a081905260c052600560e052348015610027575f5ffd5b50604051612d2d380380612d2d833981016040819052610046916101b2565b3360405180604001604052806012815260200171149bdd1a1cd8da1a5b191cc8131948105c9d60721b8152506040518060400160405280600381526020016214909d60ea1b815250815f908161009c919061027b565b5060016100a9828261027b565b5050506001600160a01b0381166100d957604051631e4fbdf760e01b81525f600482015260240160405180910390fd5b6100e281610146565b5060016008556009805460ff191690556001600160a01b038216158061010f57506001600160a01b038116155b1561012d5760405163e6c4247b60e01b815260040160405180910390fd5b6001600160a01b03918216610100521661012052610335565b600780546001600160a01b038381166001600160a01b0319831681179093556040519116919082907f8be0079c531659141344cd1fd0a4f28419497f9722a3daafe3b4186f6b6457e0905f90a35050565b80516001600160a01b03811681146101ad575f5ffd5b919050565b5f5f604083850312156101c3575f5ffd5b6101cc83610197565b91506101da60208401610197565b90509250929050565b634e487b7160e01b5f52604160045260245ffd5b600181811c9082168061020b57607f821691505b60208210810361022957634e487b7160e01b5f52602260045260245ffd5b50919050565b601f82111561027657805f5260205f20601f840160051c810160208510156102545750805b601f840160051c820191505b81811015610273575f8155600101610260565b50505b505050565b81516001600160401b03811115610294576102946101e3565b6102a8816102a284546101f7565b8461022f565b6020601f8211600181146102da575f83156102c35750848201515b5f19600385901b1c1916600184901b178455610273565b5f84815260208120601f198516915b8281101561030957878501518255602094850194600190920191016102e9565b508482101561032657868401515f19600387901b60f8161c191681555b50505050600190811b01905550565b60805160a05160c05160e051610100516101205161296b6103c25f395f818161068401528181611bfd0152611d6a01525f818161073c01528181611bd30152611d3a01525f8181611ca20152611cdb01525f611b8501525f611b4c01525f81816102330152818161029201528181610df801528181610e4101528181610fcc0152611042015261296b5ff3fe608060405260043610610207575f3560e01c806370a0823111610117578063b88d4fde1161009f578063db2e21bc1161006e578063db2e21bc1461075e578063e985e9c514610772578063efef39a114610791578063f2fde38b146107a4578063f7d97577146107c35761026b565b8063b88d4fde146106d9578063c4ae3168146106f8578063c87b56dd1461070c578063ca4b208b1461072b5761026b565b80638da5cb5b116100e65780638da5cb5b146106375780638dfd0b0314610654578063934aa0231461067357806395d89b41146106a6578063a22cb465146106ba5761026b565b806370a0823114610599578063715018a6146105b85780638a61f4fb146105cc5780638c7a63ae146105eb5761026b565b8063150b7a021161019a5780633ccfd60b116101695780633ccfd60b14610511578063410085df1461052557806342842e0e146105445780635c975abb146105635780636352211e1461057a5761026b565b8063150b7a021461045257806318e97fd11461049557806323b872dd146104b45780632a55205a146104d35761026b565b8063095ea7b3116101d6578063095ea7b31461037057806312fb2d2d146103915780631361a3b6146104145780631495fa99146104335761026b565b806301ffc9a7146102b757806306fdde03146102eb578063081812fc1461030c57806308598df0146103435761026b565b3661026b57337f88a5966d370b9919b20f3e2c13ff65706f196a4e32cc2c12bf57088f885258746102587f000000000000000000000000000000000000000000000000000000000000000034612343565b60405190815260200160405180910390a2005b337f88a5966d370b9919b20f3e2c13ff65706f196a4e32cc2c12bf57088f885258746102587f000000000000000000000000000000000000000000000000000000000000000034612343565b3480156102c2575f5ffd5b506102d66102d1366004612377565b6107e2565b60405190151581526020015b60405180910390f35b3480156102f6575f5ffd5b506102ff61080c565b6040516102e291906123c0565b348015610317575f5ffd5b5061032b6103263660046123d2565b61089b565b6040516001600160a01b0390911681526020016102e2565b34801561034e575f5ffd5b5061036261035d36600461243b565b6108c2565b6040519081526020016102e2565b34801561037b575f5ffd5b5061038f61038a366004612493565b610a4b565b005b34801561039c575f5ffd5b506103ed6103ab3660046123d2565b5f908152600e60209081526040918290208251808401909352546001600160a01b038116808452600160a01b9091046001600160601b03169290910182905291565b604080516001600160a01b0390931683526001600160601b039091166020830152016102e2565b34801561041f575f5ffd5b5061038f61042e3660046123d2565b610a5a565b34801561043e575f5ffd5b5061038f61044d3660046124bd565b610ad8565b34801561045d575f5ffd5b5061047c61046c36600461251b565b630a85bd0160e11b949350505050565b6040516001600160e01b031990911681526020016102e2565b3480156104a0575f5ffd5b5061038f6104af3660046125fc565b610baa565b3480156104bf575f5ffd5b5061038f6104ce366004612644565b610c1f565b3480156104de575f5ffd5b506104f26104ed366004612682565b610cad565b604080516001600160a01b0390931683526020830191909152016102e2565b34801561051c575f5ffd5b5061038f610d41565b348015610530575f5ffd5b5061038f61053f366004612493565b610e33565b34801561054f575f5ffd5b5061038f61055e366004612644565b610f4a565b34801561056e575f5ffd5b5060095460ff166102d6565b348015610585575f5ffd5b5061032b6105943660046123d2565b610f64565b3480156105a4575f5ffd5b506103626105b33660046126a2565b610f6e565b3480156105c3575f5ffd5b5061038f610fb3565b3480156105d7575f5ffd5b506103626105e63660046123d2565b610fc6565b3480156105f6575f5ffd5b5061060a6106053660046123d2565b610ff1565b604080516001600160a01b03958616815294909316602085015291830152151560608201526080016102e2565b348015610642575f5ffd5b506007546001600160a01b031661032b565b34801561065f575f5ffd5b5061036261066e3660046123d2565b61103c565b34801561067e575f5ffd5b5061032b7f000000000000000000000000000000000000000000000000000000000000000081565b3480156106b1575f5ffd5b506102ff611067565b3480156106c5575f5ffd5b5061038f6106d43660046126bd565b611076565b3480156106e4575f5ffd5b5061038f6106f336600461251b565b611081565b348015610703575f5ffd5b5061038f611099565b348015610717575f5ffd5b506102ff6107263660046123d2565b6110bc565b348015610736575f5ffd5b5061032b7f000000000000000000000000000000000000000000000000000000000000000081565b348015610769575f5ffd5b5061038f6111bf565b34801561077d575f5ffd5b506102d661078c3660046126f8565b611298565b61038f61079f3660046123d2565b6112c5565b3480156107af575f5ffd5b5061038f6107be3660046126a2565b6114d0565b3480156107ce575f5ffd5b5061038f6107dd366004612682565b61150a565b5f6001600160e01b0319821663152a902d60e11b148061080657506108068261159e565b92915050565b60605f805461081a90612724565b80601f016020809104026020016040519081016040528092919081815260200182805461084690612724565b80156108915780601f1061086857610100808354040283529160200191610891565b820191905f5260205f20905b81548152906001019060200180831161087457829003601f168201915b5050505050905090565b5f6108a5826115c2565b505f828152600460205260409020546001600160a01b0316610806565b5f6108cb6115fa565b6108d3611627565b6108db611680565b6001600160a01b0385166109025760405163e6c4247b60e01b815260040160405180910390fd5b610910600a80546001019055565b5f61091a600a5490565b905061092686826116c6565b6109658186868080601f0160208091040260200160405190810160405280939291908181526020018383808284375f920191909152506116df92505050565b5f818152600d6020908152604080832080546001600160a01b0319166001600160a01b038b16179055600c9091529020805460ff1916600117905582156109f3575f818152600b6020526040908190208490555181907f945c1c4e99aa89f648fbfe3df471b916f719e16d960fcec0737d4d56bd696838906109ea9086815260200190565b60405180910390a25b856001600160a01b0316817f06becd955c918828f6e985541acbf49cc842c9e9bd569fffc7698e721ef135758787604051610a2f92919061275c565b60405180910390a39050610a436001600855565b949350505050565b610a5682823361172e565b5050565b33610a6482610f64565b6001600160a01b031614610a8b576040516330cd747160e01b815260040160405180910390fd5b5f818152600b60205260408082208290555182917f945c1c4e99aa89f648fbfe3df471b916f719e16d960fcec0737d4d56bd69683891610acd91815260200190565b60405180910390a250565b5f838152600d60205260409020546001600160a01b03163314610b0e576040516316aac54f60e01b815260040160405180910390fd5b6001600160a01b038216610b355760405163e6c4247b60e01b815260040160405180910390fd5b612710816001600160601b03161115610b615760405163c2b03beb60e01b815260040160405180910390fd5b6040805180820182526001600160a01b0393841681526001600160601b0392831660208083019182525f968752600e90529190942093519051909116600160a01b029116179055565b33610bb484610f64565b6001600160a01b031614610bdb576040516330cd747160e01b815260040160405180910390fd5b610c1a8383838080601f0160208091040260200160405190810160405280939291908181526020018383808284375f920191909152506116df92505050565b505050565b6001600160a01b038216610c4d57604051633250574960e11b81525f60048201526024015b60405180910390fd5b5f610c5983833361173b565b9050836001600160a01b0316816001600160a01b031614610ca7576040516364283d7b60e01b81526001600160a01b0380861660048301526024820184905282166044820152606401610c44565b50505050565b5f828152600e602090815260408083208151808301909252546001600160a01b038116808352600160a01b9091046001600160601b0316928201929092528291610d0a57604051632f85f35560e01b815260040160405180910390fd5b5f61271082602001516001600160601b031686610d27919061278a565b610d319190612343565b91519350909150505b9250929050565b610d496115fa565b475f819003610d6b5760405163043f9e1160e41b815260040160405180910390fd5b6040515f90339083908381818185875af1925050503d805f8114610daa576040519150601f19603f3d011682016040523d82523d5f602084013e610daf565b606091505b5050905080610dd1576040516312171d8360e31b815260040160405180910390fd5b337f7084f5476618d8e60b11ef0d7d3f06914655adb8793e28ff7f018d4c76d505d5610e1d7f000000000000000000000000000000000000000000000000000000000000000085612343565b6040519081526020015b60405180910390a25050565b610e3b6115fa565b5f610e667f00000000000000000000000000000000000000000000000000000000000000008361278a565b9050801580610e7457508047105b15610e915760405162bfc92160e01b815260040160405180910390fd5b5f836001600160a01b0316826040515f6040518083038185875af1925050503d805f8114610eda576040519150601f19603f3d011682016040523d82523d5f602084013e610edf565b606091505b5050905080610f01576040516312171d8360e31b815260040160405180910390fd5b836001600160a01b03167fd7dee2702d63ad89917b6a4da9981c90c4d24f8c2bdfd64c604ecae57d8d065184604051610f3c91815260200190565b60405180910390a250505050565b610c1a83838360405180602001604052805f815250611081565b5f610806826115c2565b5f6001600160a01b038216610f98576040516322718ad960e21b81525f6004820152602401610c44565b506001600160a01b03165f9081526003602052604090205490565b610fbb6115fa565b610fc45f61182d565b565b5f6108067f000000000000000000000000000000000000000000000000000000000000000083612343565b5f5f5f5f610ffe85610f64565b5f958652600d6020908152604080882054600b835281892054600c90935297205491976001600160a01b039097169690955060ff9091169350915050565b5f6108067f00000000000000000000000000000000000000000000000000000000000000008361278a565b60606001805461081a90612724565b610a5633838361187e565b61108c848484610c1f565b610ca7338585858561191c565b6110a16115fa565b60095460ff16156110b457610fc4611a44565b610fc4611a96565b60606110c7826115c2565b505f82815260066020526040812080546110e090612724565b80601f016020809104026020016040519081016040528092919081815260200182805461110c90612724565b80156111575780601f1061112e57610100808354040283529160200191611157565b820191905f5260205f20905b81548152906001019060200180831161113a57829003601f168201915b505050505090505f61117360408051602081019091525f815290565b905080515f03611184575092915050565b8151156111b657808260405160200161119e9291906127b8565b60405160208183030381529060405292505050919050565b610a4384611ad3565b6111c76115fa565b478015611295575f6111e16007546001600160a01b031690565b6001600160a01b0316826040515f6040518083038185875af1925050503d805f8114611228576040519150601f19603f3d011682016040523d82523d5f602084013e61122d565b606091505b505090508061124f576040516312171d8360e31b815260040160405180910390fd5b6007546001600160a01b03166001600160a01b03167f7084f5476618d8e60b11ef0d7d3f06914655adb8793e28ff7f018d4c76d505d583604051610e2791815260200190565b50565b6001600160a01b039182165f90815260056020908152604080832093909416825291909152205460ff1690565b6112cd611627565b6112d5611680565b60095460ff16156112f9576040516313a5ef3f60e21b815260040160405180910390fd5b5f818152600b60205260408120549081900361132857604051631d99ddbf60e01b815260040160405180910390fd5b5f6113328261103c565b9050803410156113555760405163cd1c886760e01b815260040160405180910390fd5b5f61135f84610f64565b5f858152600c602052604090205490915060ff161561139c576113828483611b44565b5f848152600c60205260409020805460ff191690556113a7565b6113a7848383611c43565b5f6113b283346127cc565b9050801561145e576040515f90339083908381818185875af1925050503d805f81146113f9576040519150601f19603f3d011682016040523d82523d5f602084013e6113fe565b606091505b5050905080611420576040516312171d8360e31b815260040160405180910390fd5b337fd7dee2702d63ad89917b6a4da9981c90c4d24f8c2bdfd64c604ecae57d8d065161144b84610fc6565b60405190815260200160405180910390a2505b611469823387611dd2565b5f858152600b6020526040808220919091555133906001600160a01b0384169087907f88863d5e20f64464b554931394e2e4b6f09c10015147215bf26b3ba5070acebe906114ba9089815260200190565b60405180910390a4505050506112956001600855565b6114d86115fa565b6001600160a01b03811661150157604051631e4fbdf760e01b81525f6004820152602401610c44565b6112958161182d565b3361151483610f64565b6001600160a01b03161461153b576040516330cd747160e01b815260040160405180910390fd5b805f0361155a5760405162bfc92160e01b815260040160405180910390fd5b5f828152600b6020526040908190208290555182907f945c1c4e99aa89f648fbfe3df471b916f719e16d960fcec0737d4d56bd69683890610e279084815260200190565b5f6001600160e01b03198216632483248360e11b1480610806575061080682611e7f565b5f818152600260205260408120546001600160a01b03168061080657604051637e27328960e01b815260048101849052602401610c44565b6007546001600160a01b03163314610fc45760405163118cdaa760e01b8152336004820152602401610c44565b6002600854036116795760405162461bcd60e51b815260206004820152601f60248201527f5265656e7472616e637947756172643a207265656e7472616e742063616c6c006044820152606401610c44565b6002600855565b60095460ff1615610fc45760405162461bcd60e51b815260206004820152601060248201526f14185d5cd8589b194e881c185d5cd95960821b6044820152606401610c44565b610a56828260405180602001604052805f815250611ece565b5f8281526006602052604090206116f68282612823565b506040518281527ff8e1a15aba9398e019f0b49df1a4fde98ee17ae345cb5f6b5e2c27f5033e8ce79060200160405180910390a15050565b610c1a8383836001611ee5565b5f828152600260205260408120546001600160a01b039081169083161561176757611767818486611fe9565b6001600160a01b038116156117a1576117825f855f5f611ee5565b6001600160a01b0381165f90815260036020526040902080545f190190555b6001600160a01b038516156117cf576001600160a01b0385165f908152600360205260409020805460010190555b5f8481526002602052604080822080546001600160a01b0319166001600160a01b0389811691821790925591518793918516917fddf252ad1be2c89b69c2b068fc378daa952ba7f163c4a11628f55a4df523b3ef91a4949350505050565b600780546001600160a01b038381166001600160a01b0319831681179093556040519116919082907f8be0079c531659141344cd1fd0a4f28419497f9722a3daafe3b4186f6b6457e0905f90a35050565b6001600160a01b0382166118b057604051630b61174360e31b81526001600160a01b0383166004820152602401610c44565b6001600160a01b038381165f81815260056020908152604080832094871680845294825291829020805460ff191686151590811790915591519182527f17307eab39ab6107e8899845ad3d59bd9653f200f220920489ca2b5937696c31910160405180910390a3505050565b6001600160a01b0383163b15611a3d57604051630a85bd0160e11b81526001600160a01b0384169063150b7a029061195e9088908890879087906004016128de565b6020604051808303815f875af1925050508015611998575060408051601f3d908101601f191682019092526119959181019061291a565b60015b6119ff573d8080156119c5576040519150601f19603f3d011682016040523d82523d5f602084013e6119ca565b606091505b5080515f036119f757604051633250574960e11b81526001600160a01b0385166004820152602401610c44565b805181602001fd5b6001600160e01b03198116630a85bd0160e11b14611a3b57604051633250574960e11b81526001600160a01b0385166004820152602401610c44565b505b5050505050565b611a4c61204d565b6009805460ff191690557f5db9ee0a495bf2e6ff9c91a7834c1ba4fdd244a5e8aa4e537bd38aeae4b073aa335b6040516001600160a01b03909116815260200160405180910390a1565b611a9e611680565b6009805460ff191660011790557f62e78cea01bee320cd4e420270b5ea74000d11b0c9f74754ebdbfc544b05a258611a793390565b6060611ade826115c2565b505f611af460408051602081019091525f815290565b90505f815111611b125760405180602001604052805f815250611b3d565b80611b1c84612096565b604051602001611b2d9291906127b8565b6040516020818303038152906040525b9392505050565b5f6064611b717f00000000000000000000000000000000000000000000000000000000000000008461278a565b611b7b9190612343565b90505f6064611baa7f00000000000000000000000000000000000000000000000000000000000000008561278a565b611bb49190612343565b90505f81611bc284866127cc565b611bcc91906127cc565b9050611bf87f000000000000000000000000000000000000000000000000000000000000000084612126565b611c227f000000000000000000000000000000000000000000000000000000000000000083612126565b5f858152600d6020526040902054611a3d906001600160a01b031682612126565b5f838152600e602090815260408083208151808301909252546001600160a01b0381168252600160a01b90046001600160601b0316918101829052919061271090611c8e908661278a565b611c989190612343565b90505f6064611cc77f00000000000000000000000000000000000000000000000000000000000000008761278a565b611cd19190612343565b90505f6064611d007f00000000000000000000000000000000000000000000000000000000000000008861278a565b611d0a9190612343565b90505f8382611d19858a6127cc565b611d2391906127cc565b611d2d91906127cc565b90508215611d5f57611d5f7f000000000000000000000000000000000000000000000000000000000000000084612126565b8115611d8f57611d8f7f000000000000000000000000000000000000000000000000000000000000000083612126565b5f84118015611da7575084516001600160a01b031615155b15611db8578451611db89085612126565b8015611dc857611dc88682612126565b5050505050505050565b6001600160a01b038216611dfb57604051633250574960e11b81525f6004820152602401610c44565b5f611e0783835f61173b565b90506001600160a01b038116611e3357604051637e27328960e01b815260048101839052602401610c44565b836001600160a01b0316816001600160a01b031614610ca7576040516364283d7b60e01b81526001600160a01b0380861660048301526024820184905282166044820152606401610c44565b5f6001600160e01b031982166380ac58cd60e01b1480611eaf57506001600160e01b03198216635b5e139f60e01b145b8061080657506301ffc9a760e01b6001600160e01b0319831614610806565b611ed88383612196565b610c1a335f85858561191c565b8080611ef957506001600160a01b03821615155b15611fba575f611f08846115c2565b90506001600160a01b03831615801590611f345750826001600160a01b0316816001600160a01b031614155b8015611f475750611f458184611298565b155b15611f705760405163a9fbf51f60e01b81526001600160a01b0384166004820152602401610c44565b8115611fb85783856001600160a01b0316826001600160a01b03167f8c5be1e5ebec7d5bd14f71427d1e84f3dd0314c0f7b2291e5b200ac8c7c3b92560405160405180910390a45b505b50505f90815260046020526040902080546001600160a01b0319166001600160a01b0392909216919091179055565b611ff48383836121f7565b610c1a576001600160a01b03831661202257604051637e27328960e01b815260048101829052602401610c44565b60405163177e802f60e01b81526001600160a01b038316600482015260248101829052604401610c44565b60095460ff16610fc45760405162461bcd60e51b815260206004820152601460248201527314185d5cd8589b194e881b9bdd081c185d5cd95960621b6044820152606401610c44565b60605f6120a283612258565b60010190505f8167ffffffffffffffff8111156120c1576120c1612507565b6040519080825280601f01601f1916602001820160405280156120eb576020820181803683370190505b5090508181016020015b5f19016f181899199a1a9b1b9c1cb0b131b232b360811b600a86061a8153600a85049450846120f557509392505050565b5f826001600160a01b0316826040515f6040518083038185875af1925050503d805f811461216f576040519150601f19603f3d011682016040523d82523d5f602084013e612174565b606091505b5050905080610c1a576040516312171d8360e31b815260040160405180910390fd5b6001600160a01b0382166121bf57604051633250574960e11b81525f6004820152602401610c44565b5f6121cb83835f61173b565b90506001600160a01b03811615610c1a576040516339e3563760e11b81525f6004820152602401610c44565b5f6001600160a01b03831615801590610a435750826001600160a01b0316846001600160a01b0316148061223057506122308484611298565b80610a435750505f908152600460205260409020546001600160a01b03908116911614919050565b5f8072184f03e93ff9f4daa797ed6e38ed64bf6a1f0160401b83106122965772184f03e93ff9f4daa797ed6e38ed64bf6a1f0160401b830492506040015b6d04ee2d6d415b85acef810000000083106122c2576d04ee2d6d415b85acef8100000000830492506020015b662386f26fc1000083106122e057662386f26fc10000830492506010015b6305f5e10083106122f8576305f5e100830492506008015b612710831061230c57612710830492506004015b6064831061231e576064830492506002015b600a83106108065760010192915050565b634e487b7160e01b5f52601160045260245ffd5b5f8261235d57634e487b7160e01b5f52601260045260245ffd5b500490565b6001600160e01b031981168114611295575f5ffd5b5f60208284031215612387575f5ffd5b8135611b3d81612362565b5f81518084528060208401602086015e5f602082860101526020601f19601f83011685010191505092915050565b602081525f611b3d6020830184612392565b5f602082840312156123e2575f5ffd5b5035919050565b6001600160a01b0381168114611295575f5ffd5b5f5f83601f84011261240d575f5ffd5b50813567ffffffffffffffff811115612424575f5ffd5b602083019150836020828501011115610d3a575f5ffd5b5f5f5f5f6060858703121561244e575f5ffd5b8435612459816123e9565b9350602085013567ffffffffffffffff811115612474575f5ffd5b612480878288016123fd565b9598909750949560400135949350505050565b5f5f604083850312156124a4575f5ffd5b82356124af816123e9565b946020939093013593505050565b5f5f5f606084860312156124cf575f5ffd5b8335925060208401356124e1816123e9565b915060408401356001600160601b03811681146124fc575f5ffd5b809150509250925092565b634e487b7160e01b5f52604160045260245ffd5b5f5f5f5f6080858703121561252e575f5ffd5b8435612539816123e9565b93506020850135612549816123e9565b925060408501359150606085013567ffffffffffffffff81111561256b575f5ffd5b8501601f8101871361257b575f5ffd5b803567ffffffffffffffff81111561259557612595612507565b604051601f8201601f19908116603f0116810167ffffffffffffffff811182821017156125c4576125c4612507565b6040528181528282016020018910156125db575f5ffd5b816020840160208301375f6020838301015280935050505092959194509250565b5f5f5f6040848603121561260e575f5ffd5b83359250602084013567ffffffffffffffff81111561262b575f5ffd5b612637868287016123fd565b9497909650939450505050565b5f5f5f60608486031215612656575f5ffd5b8335612661816123e9565b92506020840135612671816123e9565b929592945050506040919091013590565b5f5f60408385031215612693575f5ffd5b50508035926020909101359150565b5f602082840312156126b2575f5ffd5b8135611b3d816123e9565b5f5f604083850312156126ce575f5ffd5b82356126d9816123e9565b9150602083013580151581146126ed575f5ffd5b809150509250929050565b5f5f60408385031215612709575f5ffd5b8235612714816123e9565b915060208301356126ed816123e9565b600181811c9082168061273857607f821691505b60208210810361275657634e487b7160e01b5f52602260045260245ffd5b50919050565b60208152816020820152818360408301375f818301604090810191909152601f909201601f19160101919050565b80820281158282048414176108065761080661232f565b5f81518060208401855e5f93019283525090919050565b5f610a436127c683866127a1565b846127a1565b818103818111156108065761080661232f565b601f821115610c1a57805f5260205f20601f840160051c810160208510156128045750805b601f840160051c820191505b81811015611a3d575f8155600101612810565b815167ffffffffffffffff81111561283d5761283d612507565b6128518161284b8454612724565b846127df565b6020601f821160018114612883575f831561286c5750848201515b5f19600385901b1c1916600184901b178455611a3d565b5f84815260208120601f198516915b828110156128b25787850151825560209485019460019092019101612892565b50848210156128cf57868401515f19600387901b60f8161c191681555b50505050600190811b01905550565b6001600160a01b03858116825284166020820152604081018390526080606082018190525f9061291090830184612392565b9695505050505050565b5f6020828403121561292a575f5ffd5b8151611b3d8161236256fea264697066735822122033f441d9a6325fb7de61246efbcc3643a48a3d0648f9924720e768a9769c9b3464736f6c634300081c0033",
			"opcodes": "PUSH2 0x140 PUSH1 0x40 MSTORE PUSH4 0x3B9ACA00 PUSH1 0x80 MSTORE PUSH1 0xA PUSH1 0xA0 DUP2 SWAP1 MSTORE PUSH1 0xC0 MSTORE PUSH1 0x5 PUSH1 0xE0 MSTORE CALLVALUE DUP1 ISZERO PUSH2 0x27 JUMPI PUSH0 PUSH0 REVERT JUMPDEST POP PUSH1 0x40 MLOAD PUSH2 0x2D2D CODESIZE SUB DUP1 PUSH2 0x2D2D DUP4 CODECOPY DUP2 ADD PUSH1 0x40 DUP2 SWAP1 MSTORE PUSH2 0x46 SWAP2 PUSH2 0x1B2 JUMP JUMPDEST CALLER PUSH1 0x40 MLOAD DUP1 PUSH1 0x40 ADD PUSH1 0x40 MSTORE DUP1 PUSH1 0x12 DUP2 MSTORE PUSH1 0x20 ADD PUSH18 0x149BDD1A1CD8DA1A5B191CC8131948105C9D PUSH1 0x72 SHL DUP2 MSTORE POP PUSH1 0x40 MLOAD DUP1 PUSH1 0x40 ADD PUSH1 0x40 MSTORE DUP1 PUSH1 0x3 DUP2 MSTORE PUSH1 0x20 ADD PUSH3 0x14909D PUSH1 0xEA SHL DUP2 MSTORE POP DUP2 PUSH0 SWAP1 DUP2 PUSH2 0x9C SWAP2 SWAP1 PUSH2 0x27B JUMP JUMPDEST POP PUSH1 0x1 PUSH2 0xA9 DUP3 DUP3 PUSH2 0x27B JUMP JUMPDEST POP POP POP PUSH1 0x1 PUSH1 0x1 PUSH1 0xA0 SHL SUB DUP2 AND PUSH2 0xD9 JUMPI PUSH1 0x40 MLOAD PUSH4 0x1E4FBDF7 PUSH1 0xE0 SHL DUP2 MSTORE PUSH0 PUSH1 0x4 DUP3 ADD MSTORE PUSH1 0x24 ADD PUSH1 0x40 MLOAD DUP1 SWAP2 SUB SWAP1 REVERT JUMPDEST PUSH2 0xE2 DUP2 PUSH2 0x146 JUMP JUMPDEST POP PUSH1 0x1 PUSH1 0x8 SSTORE PUSH1 0x9 DUP1 SLOAD PUSH1 0xFF NOT AND SWAP1 SSTORE PUSH1 0x1 PUSH1 0x1 PUSH1 0xA0 SHL SUB DUP3 AND ISZERO DUP1 PUSH2 0x10F JUMPI POP PUSH1 0x1 PUSH1 0x1 PUSH1 0xA0 SHL SUB DUP2 AND ISZERO JUMPDEST ISZERO PUSH2 0x12D JUMPI PUSH1 0x40 MLOAD PUSH4 0xE6C4247B PUSH1 0xE0 SHL DUP2 MSTORE PUSH1 0x4 ADD PUSH1 0x40 MLOAD DUP1 SWAP2 SUB SWAP1 REVERT JUMPDEST PUSH1 0x1 PUSH1 0x1 PUSH1 0xA0 SHL SUB SWAP2 DUP3 AND PUSH2 0x100 MSTORE AND PUSH2 0x120 MSTORE PUSH2 0x335 JUMP JUMPDEST PUSH1 0x7 DUP1 SLOAD PUSH1 0x1 PUSH1 0x1 PUSH1 0xA0 SHL SUB DUP4 DUP2 AND PUSH1 0x1 PUSH1 0x1 PUSH1 0xA0 SHL SUB NOT DUP4 AND DUP2 OR SWAP1 SWAP4 SSTORE PUSH1 0x40 MLOAD SWAP2 AND SWAP2 SWAP1 DUP3 SWAP1 PUSH32 0x8BE0079C531659141344CD1FD0A4F28419497F9722A3DAAFE3B4186F6B6457E0 SWAP1 PUSH0 SWAP1 LOG3 POP POP JUMP JUMPDEST DUP1 MLOAD PUSH1 0x1 PUSH1 0x1 PUSH1 0xA0 SHL SUB DUP2 AND DUP2 EQ PUSH2 0x1AD JUMPI PUSH0 PUSH0 REVERT JUMPDEST SWAP2 SWAP1 POP JUMP JUMPDEST PUSH0 PUSH0 PUSH1 0x40 DUP4 DUP6 SUB SLT ISZERO PUSH2 0x1C3 JUMPI PUSH0 PUSH0 REVERT JUMPDEST PUSH2 0x1CC DUP4 PUSH2 0x197 JUMP JUMPDEST SWAP2 POP PUSH2 0x1DA PUSH1 0x20 DUP5 ADD PUSH2 0x197 JUMP JUMPDEST SWAP1 POP SWAP3 POP SWAP3 SWAP1 POP JUMP JUMPDEST PUSH4 0x4E487B71 PUSH1 0xE0 SHL PUSH0 MSTORE PUSH1 0x41 PUSH1 0x4 MSTORE PUSH1 0x24 PUSH0 REVERT JUMPDEST PUSH1 0x1 DUP2 DUP2 SHR SWAP1 DUP3 AND DUP1 PUSH2 0x20B JUMPI PUSH1 0x7F DUP3 AND SWAP2 POP JUMPDEST PUSH1 0x20 DUP3 LT DUP2 SUB PUSH2 0x229 JUMPI PUSH4 0x4E487B71 PUSH1 0xE0 SHL PUSH0 MSTORE PUSH1 0x22 PUSH1 0x4 MSTORE PUSH1 0x24 PUSH0 REVERT JUMPDEST POP SWAP2 SWAP1 POP JUMP JUMPDEST PUSH1 0x1F DUP3 GT ISZERO PUSH2 0x276 JUMPI DUP1 PUSH0 MSTORE PUSH1 0x20 PUSH0 KECCAK256 PUSH1 0x1F DUP5 ADD PUSH1 0x5 SHR DUP2 ADD PUSH1 0x20 DUP6 LT ISZERO PUSH2 0x254 JUMPI POP DUP1 JUMPDEST PUSH1 0x1F DUP5 ADD PUSH1 0x5 SHR DUP3 ADD SWAP2 POP JUMPDEST DUP2 DUP2 LT ISZERO PUSH2 0x273 JUMPI PUSH0 DUP2 SSTORE PUSH1 0x1 ADD PUSH2 0x260 JUMP JUMPDEST POP POP JUMPDEST POP POP POP JUMP JUMPDEST DUP2 MLOAD PUSH1 0x1 PUSH1 0x1 PUSH1 0x40 SHL SUB DUP2 GT ISZERO PUSH2 0x294 JUMPI PUSH2 0x294 PUSH2 0x1E3 JUMP JUMPDEST PUSH2 0x2A8 DUP2 PUSH2 0x2A2 DUP5 SLOAD PUSH2 0x1F7 JUMP JUMPDEST DUP5 PUSH2 0x22F JUMP JUMPDEST PUSH1 0x20 PUSH1 0x1F DUP3 GT PUSH1 0x1 DUP2 EQ PUSH2 0x2DA JUMPI PUSH0 DUP4 ISZERO PUSH2 0x2C3 JUMPI POP DUP5 DUP3 ADD MLOAD JUMPDEST PUSH0 NOT PUSH1 0x3 DUP6 SWAP1 SHL SHR NOT AND PUSH1 0x1 DUP5 SWAP1 SHL OR DUP5 SSTORE PUSH2 0x273 JUMP JUMPDEST PUSH0 DUP5 DUP2 MSTORE PUSH1 0x20 DUP2 KECCAK256 PUSH1 0x1F NOT DUP6 AND SWAP2 JUMPDEST DUP3 DUP2 LT ISZERO PUSH2 0x309 JUMPI DUP8 DUP6 ADD MLOAD DUP3 SSTORE PUSH1 0x20 SWAP5 DUP6 ADD SWAP5 PUSH1 0x1 SWAP1 SWAP3 ADD SWAP2 ADD PUSH2 0x2E9 JUMP JUMPDEST POP DUP5 DUP3 LT ISZERO PUSH2 0x326 JUMPI DUP7 DUP5 ADD MLOAD PUSH0 NOT PUSH1 0x3 DUP8 SWAP1 SHL PUSH1 0xF8 AND SHR NOT AND DUP2 SSTORE JUMPDEST POP POP POP POP PUSH1 0x1 SWAP1 DUP2 SHL ADD SWAP1 SSTORE POP JUMP JUMPDEST PUSH1 0x80 MLOAD PUSH1 0xA0 MLOAD PUSH1 0xC0 MLOAD PUSH1 0xE0 MLOAD PUSH2 0x100 MLOAD PUSH2 0x120 MLOAD PUSH2 0x296B PUSH2 0x3C2 PUSH0 CODECOPY PUSH0 DUP2 DUP2 PUSH2 0x684 ADD MSTORE DUP2 DUP2 PUSH2 0x1BFD ADD MSTORE PUSH2 0x1D6A ADD MSTORE PUSH0 DUP2 DUP2 PUSH2 0x73C ADD MSTORE DUP2 DUP2 PUSH2 0x1BD3 ADD MSTORE PUSH2 0x1D3A ADD MSTORE PUSH0 DUP2 DUP2 PUSH2 0x1CA2 ADD MSTORE PUSH2 0x1CDB ADD MSTORE PUSH0 PUSH2 0x1B85 ADD MSTORE PUSH0 PUSH2 0x1B4C ADD MSTORE PUSH0 DUP2 DUP2 PUSH2 0x233 ADD MSTORE DUP2 DUP2 PUSH2 0x292 ADD MSTORE DUP2 DUP2 PUSH2 0xDF8 ADD MSTORE DUP2 DUP2 PUSH2 0xE41 ADD MSTORE DUP2 DUP2 PUSH2 0xFCC ADD MSTORE PUSH2 0x1042 ADD MSTORE PUSH2 0x296B PUSH0 RETURN INVALID PUSH1 0x80 PUSH1 0x40 MSTORE PUSH1 0x4 CALLDATASIZE LT PUSH2 0x207 JUMPI PUSH0 CALLDATALOAD PUSH1 0xE0 SHR DUP1 PUSH4 0x70A08231 GT PUSH2 0x117 JUMPI DUP1 PUSH4 0xB88D4FDE GT PUSH2 0x9F JUMPI DUP1 PUSH4 0xDB2E21BC GT PUSH2 0x6E JUMPI DUP1 PUSH4 0xDB2E21BC EQ PUSH2 0x75E JUMPI DUP1 PUSH4 0xE985E9C5 EQ PUSH2 0x772 JUMPI DUP1 PUSH4 0xEFEF39A1 EQ PUSH2 0x791 JUMPI DUP1 PUSH4 0xF2FDE38B EQ PUSH2 0x7A4 JUMPI DUP1 PUSH4 0xF7D97577 EQ PUSH2 0x7C3 JUMPI PUSH2 0x26B JUMP JUMPDEST DUP1 PUSH4 0xB88D4FDE EQ PUSH2 0x6D9 JUMPI DUP1 PUSH4 0xC4AE3168 EQ PUSH2 0x6F8 JUMPI DUP1 PUSH4 0xC87B56DD EQ PUSH2 0x70C JUMPI DUP1 PUSH4 0xCA4B208B EQ PUSH2 0x72B JUMPI PUSH2 0x26B JUMP JUMPDEST DUP1 PUSH4 0x8DA5CB5B GT PUSH2 0xE6 JUMPI DUP1 PUSH4 0x8DA5CB5B EQ PUSH2 0x637 JUMPI DUP1 PUSH4 0x8DFD0B03 EQ PUSH2 0x654 JUMPI DUP1 PUSH4 0x934AA023 EQ PUSH2 0x673 JUMPI DUP1 PUSH4 0x95D89B41 EQ PUSH2 0x6A6 JUMPI DUP1 PUSH4 0xA22CB465 EQ PUSH2 0x6BA JUMPI PUSH2 0x26B JUMP JUMPDEST DUP1 PUSH4 0x70A08231 EQ PUSH2 0x599 JUMPI DUP1 PUSH4 0x715018A6 EQ PUSH2 0x5B8 JUMPI DUP1 PUSH4 0x8A61F4FB EQ PUSH2 0x5CC JUMPI DUP1 PUSH4 0x8C7A63AE EQ PUSH2 0x5EB JUMPI PUSH2 0x26B JUMP JUMPDEST DUP1 PUSH4 0x150B7A02 GT PUSH2 0x19A JUMPI DUP1 PUSH4 0x3CCFD60B GT PUSH2 0x169 JUMPI DUP1 PUSH4 0x3CCFD60B EQ PUSH2 0x511 JUMPI DUP1 PUSH4 0x410085DF EQ PUSH2 0x525 JUMPI DUP1 PUSH4 0x42842E0E EQ PUSH2 0x544 JUMPI DUP1 PUSH4 0x5C975ABB EQ PUSH2 0x563 JUMPI DUP1 PUSH4 0x6352211E EQ PUSH2 0x57A JUMPI PUSH2 0x26B JUMP JUMPDEST DUP1 PUSH4 0x150B7A02 EQ PUSH2 0x452 JUMPI DUP1 PUSH4 0x18E97FD1 EQ PUSH2 0x495 JUMPI DUP1 PUSH4 0x23B872DD EQ PUSH2 0x4B4 JUMPI DUP1 PUSH4 0x2A55205A EQ PUSH2 0x4D3 JUMPI PUSH2 0x26B JUMP JUMPDEST DUP1 PUSH4 0x95EA7B3 GT PUSH2 0x1D6 JUMPI DUP1 PUSH4 0x95EA7B3 EQ PUSH2 0x370 JUMPI DUP1 PUSH4 0x12FB2D2D EQ PUSH2 0x391 JUMPI DUP1 PUSH4 0x1361A3B6 EQ PUSH2 0x414 JUMPI DUP1 PUSH4 0x1495FA99 EQ PUSH2 0x433 JUMPI PUSH2 0x26B JUMP JUMPDEST DUP1 PUSH4 0x1FFC9A7 EQ PUSH2 0x2B7 JUMPI DUP1 PUSH4 0x6FDDE03 EQ PUSH2 0x2EB JUMPI DUP1 PUSH4 0x81812FC EQ PUSH2 0x30C JUMPI DUP1 PUSH4 0x8598DF0 EQ PUSH2 0x343 JUMPI PUSH2 0x26B JUMP JUMPDEST CALLDATASIZE PUSH2 0x26B JUMPI CALLER PUSH32 0x88A5966D370B9919B20F3E2C13FF65706F196A4E32CC2C12BF57088F88525874 PUSH2 0x258 PUSH32 0x0 CALLVALUE PUSH2 0x2343 JUMP JUMPDEST PUSH1 0x40 MLOAD SWAP1 DUP2 MSTORE PUSH1 0x20 ADD PUSH1 0x40 MLOAD DUP1 SWAP2 SUB SWAP1 LOG2 STOP JUMPDEST CALLER PUSH32 0x88A5966D370B9919B20F3E2C13FF65706F196A4E32CC2C12BF57088F88525874 PUSH2 0x258 PUSH32 0x0 CALLVALUE PUSH2 0x2343 JUMP JUMPDEST CALLVALUE DUP1 ISZERO PUSH2 0x2C2 JUMPI PUSH0 PUSH0 REVERT JUMPDEST POP PUSH2 0x2D6 PUSH2 0x2D1 CALLDATASIZE PUSH1 0x4 PUSH2 0x2377 JUMP JUMPDEST PUSH2 0x7E2 JUMP JUMPDEST PUSH1 0x40 MLOAD SWAP1 ISZERO ISZERO DUP2 MSTORE PUSH1 0x20 ADD JUMPDEST PUSH1 0x40 MLOAD DUP1 SWAP2 SUB SWAP1 RETURN JUMPDEST CALLVALUE DUP1 ISZERO PUSH2 0x2F6 JUMPI PUSH0 PUSH0 REVERT JUMPDEST POP PUSH2 0x2FF PUSH2 0x80C JUMP JUMPDEST PUSH1 0x40 MLOAD PUSH2 0x2E2 SWAP2 SWAP1 PUSH2 0x23C0 JUMP JUMPDEST CALLVALUE DUP1 ISZERO PUSH2 0x317 JUMPI PUSH0 PUSH0 REVERT JUMPDEST POP PUSH2 0x32B PUSH2 0x326 CALLDATASIZE PUSH1 0x4 PUSH2 0x23D2 JUMP JUMPDEST PUSH2 0x89B JUMP JUMPDEST PUSH1 0x40 MLOAD PUSH1 0x1 PUSH1 0x1 PUSH1 0xA0 SHL SUB SWAP1 SWAP2 AND DUP2 MSTORE PUSH1 0x20 ADD PUSH2 0x2E2 JUMP JUMPDEST CALLVALUE DUP1 ISZERO PUSH2 0x34E JUMPI PUSH0 PUSH0 REVERT JUMPDEST POP PUSH2 0x362 PUSH2 0x35D CALLDATASIZE PUSH1 0x4 PUSH2 0x243B JUMP JUMPDEST PUSH2 0x8C2 JUMP JUMPDEST PUSH1 0x40 MLOAD SWAP1 DUP2 MSTORE PUSH1 0x20 ADD PUSH2 0x2E2 JUMP JUMPDEST CALLVALUE DUP1 ISZERO PUSH2 0x37B JUMPI PUSH0 PUSH0 REVERT JUMPDEST POP PUSH2 0x38F PUSH2 0x38A CALLDATASIZE PUSH1 0x4 PUSH2 0x2493 JUMP JUMPDEST PUSH2 0xA4B JUMP JUMPDEST STOP JUMPDEST CALLVALUE DUP1 ISZERO PUSH2 0x39C JUMPI PUSH0 PUSH0 REVERT JUMPDEST POP PUSH2 0x3ED PUSH2 0x3AB CALLDATASIZE PUSH1 0x4 PUSH2 0x23D2 JUMP JUMPDEST PUSH0 SWAP1 DUP2 MSTORE PUSH1 0xE PUSH1 0x20 SWAP1 DUP2 MSTORE PUSH1 0x40 SWAP2 DUP3 SWAP1 KECCAK256 DUP3 MLOAD DUP1 DUP5 ADD SWAP1 SWAP4 MSTORE SLOAD PUSH1 0x1 PUSH1 0x1 PUSH1 0xA0 SHL SUB DUP2 AND DUP1 DUP5 MSTORE PUSH1 0x1 PUSH1 0xA0 SHL SWAP1 SWAP2 DIV PUSH1 0x1 PUSH1 0x1 PUSH1 0x60 SHL SUB AND SWAP3 SWAP1 SWAP2 ADD DUP3 SWAP1 MSTORE SWAP2 JUMP JUMPDEST PUSH1 0x40 DUP1 MLOAD PUSH1 0x1 PUSH1 0x1 PUSH1 0xA0 SHL SUB SWAP1 SWAP4 AND DUP4 MSTORE PUSH1 0x1 PUSH1 0x1 PUSH1 0x60 SHL SUB SWAP1 SWAP2 AND PUSH1 0x20 DUP4 ADD MSTORE ADD PUSH2 0x2E2 JUMP JUMPDEST CALLVALUE DUP1 ISZERO PUSH2 0x41F JUMPI PUSH0 PUSH0 REVERT JUMPDEST POP PUSH2 0x38F PUSH2 0x42E CALLDATASIZE PUSH1 0x4 PUSH2 0x23D2 JUMP JUMPDEST PUSH2 0xA5A JUMP JUMPDEST CALLVALUE DUP1 ISZERO PUSH2 0x43E JUMPI PUSH0 PUSH0 REVERT JUMPDEST POP PUSH2 0x38F PUSH2 0x44D CALLDATASIZE PUSH1 0x4 PUSH2 0x24BD JUMP JUMPDEST PUSH2 0xAD8 JUMP JUMPDEST CALLVALUE DUP1 ISZERO PUSH2 0x45D JUMPI PUSH0 PUSH0 REVERT JUMPDEST POP PUSH2 0x47C PUSH2 0x46C CALLDATASIZE PUSH1 0x4 PUSH2 0x251B JUMP JUMPDEST PUSH4 0xA85BD01 PUSH1 0xE1 SHL SWAP5 SWAP4 POP POP POP POP JUMP JUMPDEST PUSH1 0x40 MLOAD PUSH1 0x1 PUSH1 0x1 PUSH1 0xE0 SHL SUB NOT SWAP1 SWAP2 AND DUP2 MSTORE PUSH1 0x20 ADD PUSH2 0x2E2 JUMP JUMPDEST CALLVALUE DUP1 ISZERO PUSH2 0x4A0 JUMPI PUSH0 PUSH0 REVERT JUMPDEST POP PUSH2 0x38F PUSH2 0x4AF CALLDATASIZE PUSH1 0x4 PUSH2 0x25FC JUMP JUMPDEST PUSH2 0xBAA JUMP JUMPDEST CALLVALUE DUP1 ISZERO PUSH2 0x4BF JUMPI PUSH0 PUSH0 REVERT JUMPDEST POP PUSH2 0x38F PUSH2 0x4CE CALLDATASIZE PUSH1 0x4 PUSH2 0x2644 JUMP JUMPDEST PUSH2 0xC1F JUMP JUMPDEST CALLVALUE DUP1 ISZERO PUSH2 0x4DE JUMPI PUSH0 PUSH0 REVERT JUMPDEST POP PUSH2 0x4F2 PUSH2 0x4ED CALLDATASIZE PUSH1 0x4 PUSH2 0x2682 JUMP JUMPDEST PUSH2 0xCAD JUMP JUMPDEST PUSH1 0x40 DUP1 MLOAD PUSH1 0x1 PUSH1 0x1 PUSH1 0xA0 SHL SUB SWAP1 SWAP4 AND DUP4 MSTORE PUSH1 0x20 DUP4 ADD SWAP2 SWAP1 SWAP2 MSTORE ADD PUSH2 0x2E2 JUMP JUMPDEST CALLVALUE DUP1 ISZERO PUSH2 0x51C JUMPI PUSH0 PUSH0 REVERT JUMPDEST POP PUSH2 0x38F PUSH2 0xD41 JUMP JUMPDEST CALLVALUE DUP1 ISZERO PUSH2 0x530 JUMPI PUSH0 PUSH0 REVERT JUMPDEST POP PUSH2 0x38F PUSH2 0x53F CALLDATASIZE PUSH1 0x4 PUSH2 0x2493 JUMP JUMPDEST PUSH2 0xE33 JUMP JUMPDEST CALLVALUE DUP1 ISZERO PUSH2 0x54F JUMPI PUSH0 PUSH0 REVERT JUMPDEST POP PUSH2 0x38F PUSH2 0x55E CALLDATASIZE PUSH1 0x4 PUSH2 0x2644 JUMP JUMPDEST PUSH2 0xF4A JUMP JUMPDEST CALLVALUE DUP1 ISZERO PUSH2 0x56E JUMPI PUSH0 PUSH0 REVERT JUMPDEST POP PUSH1 0x9 SLOAD PUSH1 0xFF AND PUSH2 0x2D6 JUMP JUMPDEST CALLVALUE DUP1 ISZERO PUSH2 0x585 JUMPI PUSH0 PUSH0 REVERT JUMPDEST POP PUSH2 0x32B PUSH2 0x594 CALLDATASIZE PUSH1 0x4 PUSH2 0x23D2 JUMP JUMPDEST PUSH2 0xF64 JUMP JUMPDEST CALLVALUE DUP1 ISZERO PUSH2 0x5A4 JUMPI PUSH0 PUSH0 REVERT JUMPDEST POP PUSH2 0x362 PUSH2 0x5B3 CALLDATASIZE PUSH1 0x4 PUSH2 0x26A2 JUMP JUMPDEST PUSH2 0xF6E JUMP JUMPDEST CALLVALUE DUP1 ISZERO PUSH2 0x5C3 JUMPI PUSH0 PUSH0 REVERT JUMPDEST POP PUSH2 0x38F PUSH2 0xFB3 JUMP JUMPDEST CALLVALUE DUP1 ISZERO PUSH2 0x5D7 JUMPI PUSH0 PUSH0 REVERT JUMPDEST POP PUSH2 0x362 PUSH2 0x5E6 CALLDATASIZE PUSH1 0x4 PUSH2 0x23D2 JUMP JUMPDEST PUSH2 0xFC6 JUMP JUMPDEST CALLVALUE DUP1 ISZERO PUSH2 0x5F6 JUMPI PUSH0 PUSH0 REVERT JUMPDEST POP PUSH2 0x60A PUSH2 0x605 CALLDATASIZE PUSH1 0x4 PUSH2 0x23D2 JUMP JUMPDEST PUSH2 0xFF1 JUMP JUMPDEST PUSH1 0x40 DUP1 MLOAD PUSH1 0x1 PUSH1 0x1 PUSH1 0xA0 SHL SUB SWAP6 DUP7 AND DUP2 MSTORE SWAP5 SWAP1 SWAP4 AND PUSH1 0x20 DUP6 ADD MSTORE SWAP2 DUP4 ADD MSTORE ISZERO ISZERO PUSH1 0x60 DUP3 ADD MSTORE PUSH1 0x80 ADD PUSH2 0x2E2 JUMP JUMPDEST CALLVALUE DUP1 ISZERO PUSH2 0x642 JUMPI PUSH0 PUSH0 REVERT JUMPDEST POP PUSH1 0x7 SLOAD PUSH1 0x1 PUSH1 0x1 PUSH1 0xA0 SHL SUB AND PUSH2 0x32B JUMP JUMPDEST CALLVALUE DUP1 ISZERO PUSH2 0x65F JUMPI PUSH0 PUSH0 REVERT JUMPDEST POP PUSH2 0x362 PUSH2 0x66E CALLDATASIZE PUSH1 0x4 PUSH2 0x23D2 JUMP JUMPDEST PUSH2 0x103C JUMP JUMPDEST CALLVALUE DUP1 ISZERO PUSH2 0x67E JUMPI PUSH0 PUSH0 REVERT JUMPDEST POP PUSH2 0x32B PUSH32 0x0 DUP2 JUMP JUMPDEST CALLVALUE DUP1 ISZERO PUSH2 0x6B1 JUMPI PUSH0 PUSH0 REVERT JUMPDEST POP PUSH2 0x2FF PUSH2 0x1067 JUMP JUMPDEST CALLVALUE DUP1 ISZERO PUSH2 0x6C5 JUMPI PUSH0 PUSH0 REVERT JUMPDEST POP PUSH2 0x38F PUSH2 0x6D4 CALLDATASIZE PUSH1 0x4 PUSH2 0x26BD JUMP JUMPDEST PUSH2 0x1076 JUMP JUMPDEST CALLVALUE DUP1 ISZERO PUSH2 0x6E4 JUMPI PUSH0 PUSH0 REVERT JUMPDEST POP PUSH2 0x38F PUSH2 0x6F3 CALLDATASIZE PUSH1 0x4 PUSH2 0x251B JUMP JUMPDEST PUSH2 0x1081 JUMP JUMPDEST CALLVALUE DUP1 ISZERO PUSH2 0x703 JUMPI PUSH0 PUSH0 REVERT JUMPDEST POP PUSH2 0x38F PUSH2 0x1099 JUMP JUMPDEST CALLVALUE DUP1 ISZERO PUSH2 0x717 JUMPI PUSH0 PUSH0 REVERT JUMPDEST POP PUSH2 0x2FF PUSH2 0x726 CALLDATASIZE PUSH1 0x4 PUSH2 0x23D2 JUMP JUMPDEST PUSH2 0x10BC JUMP JUMPDEST CALLVALUE DUP1 ISZERO PUSH2 0x736 JUMPI PUSH0 PUSH0 REVERT JUMPDEST POP PUSH2 0x32B PUSH32 0x0 DUP2 JUMP JUMPDEST CALLVALUE DUP1 ISZERO PUSH2 0x769 JUMPI PUSH0 PUSH0 REVERT JUMPDEST POP PUSH2 0x38F PUSH2 0x11BF JUMP JUMPDEST CALLVALUE DUP1 ISZERO PUSH2 0x77D JUMPI PUSH0 PUSH0 REVERT JUMPDEST POP PUSH2 0x2D6 PUSH2 0x78C CALLDATASIZE PUSH1 0x4 PUSH2 0x26F8 JUMP JUMPDEST PUSH2 0x1298 JUMP JUMPDEST PUSH2 0x38F PUSH2 0x79F CALLDATASIZE PUSH1 0x4 PUSH2 0x23D2 JUMP JUMPDEST PUSH2 0x12C5 JUMP JUMPDEST CALLVALUE DUP1 ISZERO PUSH2 0x7AF JUMPI PUSH0 PUSH0 REVERT JUMPDEST POP PUSH2 0x38F PUSH2 0x7BE CALLDATASIZE PUSH1 0x4 PUSH2 0x26A2 JUMP JUMPDEST PUSH2 0x14D0 JUMP JUMPDEST CALLVALUE DUP1 ISZERO PUSH2 0x7CE JUMPI PUSH0 PUSH0 REVERT JUMPDEST POP PUSH2 0x38F PUSH2 0x7DD CALLDATASIZE PUSH1 0x4 PUSH2 0x2682 JUMP JUMPDEST PUSH2 0x150A JUMP JUMPDEST PUSH0 PUSH1 0x1 PUSH1 0x1 PUSH1 0xE0 SHL SUB NOT DUP3 AND PUSH4 0x152A902D PUSH1 0xE1 SHL EQ DUP1 PUSH2 0x806 JUMPI POP PUSH2 0x806 DUP3 PUSH2 0x159E JUMP JUMPDEST SWAP3 SWAP2 POP POP JUMP JUMPDEST PUSH1 0x60 PUSH0 DUP1 SLOAD PUSH2 0x81A SWAP1 PUSH2 0x2724 JUMP JUMPDEST DUP1 PUSH1 0x1F ADD PUSH1 0x20 DUP1 SWAP2 DIV MUL PUSH1 0x20 ADD PUSH1 0x40 MLOAD SWAP1 DUP2 ADD PUSH1 0x40 MSTORE DUP1 SWAP3 SWAP2 SWAP1 DUP2 DUP2 MSTORE PUSH1 0x20 ADD DUP3 DUP1 SLOAD PUSH2 0x846 SWAP1 PUSH2 0x2724 JUMP JUMPDEST DUP1 ISZERO PUSH2 0x891 JUMPI DUP1 PUSH1 0x1F LT PUSH2 0x868 JUMPI PUSH2 0x100 DUP1 DUP4 SLOAD DIV MUL DUP4 MSTORE SWAP2 PUSH1 0x20 ADD SWAP2 PUSH2 0x891 JUMP JUMPDEST DUP3 ADD SWAP2 SWAP1 PUSH0 MSTORE PUSH1 0x20 PUSH0 KECCAK256 SWAP1 JUMPDEST DUP2 SLOAD DUP2 MSTORE SWAP1 PUSH1 0x1 ADD SWAP1 PUSH1 0x20 ADD DUP1 DUP4 GT PUSH2 0x874 JUMPI DUP3 SWAP1 SUB PUSH1 0x1F AND DUP3 ADD SWAP2 JUMPDEST POP POP POP POP POP SWAP1 POP SWAP1 JUMP JUMPDEST PUSH0 PUSH2 0x8A5 DUP3 PUSH2 0x15C2 JUMP JUMPDEST POP PUSH0 DUP3 DUP2 MSTORE PUSH1 0x4 PUSH1 0x20 MSTORE PUSH1 0x40 SWAP1 KECCAK256 SLOAD PUSH1 0x1 PUSH1 0x1 PUSH1 0xA0 SHL SUB AND PUSH2 0x806 JUMP JUMPDEST PUSH0 PUSH2 0x8CB PUSH2 0x15FA JUMP JUMPDEST PUSH2 0x8D3 PUSH2 0x1627 JUMP JUMPDEST PUSH2 0x8DB PUSH2 0x1680 JUMP JUMPDEST PUSH1 0x1 PUSH1 0x1 PUSH1 0xA0 SHL SUB DUP6 AND PUSH2 0x902 JUMPI PUSH1 0x40 MLOAD PUSH4 0xE6C4247B PUSH1 0xE0 SHL DUP2 MSTORE PUSH1 0x4 ADD PUSH1 0x40 MLOAD DUP1 SWAP2 SUB SWAP1 REVERT JUMPDEST PUSH2 0x910 PUSH1 0xA DUP1 SLOAD PUSH1 0x1 ADD SWAP1 SSTORE JUMP JUMPDEST PUSH0 PUSH2 0x91A PUSH1 0xA SLOAD SWAP1 JUMP JUMPDEST SWAP1 POP PUSH2 0x926 DUP7 DUP3 PUSH2 0x16C6 JUMP JUMPDEST PUSH2 0x965 DUP2 DUP7 DUP7 DUP1 DUP1 PUSH1 0x1F ADD PUSH1 0x20 DUP1 SWAP2 DIV MUL PUSH1 0x20 ADD PUSH1 0x40 MLOAD SWAP1 DUP2 ADD PUSH1 0x40 MSTORE DUP1 SWAP4 SWAP3 SWAP2 SWAP1 DUP2 DUP2 MSTORE PUSH1 0x20 ADD DUP4 DUP4 DUP1 DUP3 DUP5 CALLDATACOPY PUSH0 SWAP3 ADD SWAP2 SWAP1 SWAP2 MSTORE POP PUSH2 0x16DF SWAP3 POP POP POP JUMP JUMPDEST PUSH0 DUP2 DUP2 MSTORE PUSH1 0xD PUSH1 0x20 SWAP1 DUP2 MSTORE PUSH1 0x40 DUP1 DUP4 KECCAK256 DUP1 SLOAD PUSH1 0x1 PUSH1 0x1 PUSH1 0xA0 SHL SUB NOT AND PUSH1 0x1 PUSH1 0x1 PUSH1 0xA0 SHL SUB DUP12 AND OR SWAP1 SSTORE PUSH1 0xC SWAP1 SWAP2 MSTORE SWAP1 KECCAK256 DUP1 SLOAD PUSH1 0xFF NOT AND PUSH1 0x1 OR SWAP1 SSTORE DUP3 ISZERO PUSH2 0x9F3 JUMPI PUSH0 DUP2 DUP2 MSTORE PUSH1 0xB PUSH1 0x20 MSTORE PUSH1 0x40 SWAP1 DUP2 SWAP1 KECCAK256 DUP5 SWAP1 SSTORE MLOAD DUP2 SWAP1 PUSH32 0x945C1C4E99AA89F648FBFE3DF471B916F719E16D960FCEC0737D4D56BD696838 SWAP1 PUSH2 0x9EA SWAP1 DUP7 DUP2 MSTORE PUSH1 0x20 ADD SWAP1 JUMP JUMPDEST PUSH1 0x40 MLOAD DUP1 SWAP2 SUB SWAP1 LOG2 JUMPDEST DUP6 PUSH1 0x1 PUSH1 0x1 PUSH1 0xA0 SHL SUB AND DUP2 PUSH32 0x6BECD955C918828F6E985541ACBF49CC842C9E9BD569FFFC7698E721EF13575 DUP8 DUP8 PUSH1 0x40 MLOAD PUSH2 0xA2F SWAP3 SWAP2 SWAP1 PUSH2 0x275C JUMP JUMPDEST PUSH1 0x40 MLOAD DUP1 SWAP2 SUB SWAP1 LOG3 SWAP1 POP PUSH2 0xA43 PUSH1 0x1 PUSH1 0x8 SSTORE JUMP JUMPDEST SWAP5 SWAP4 POP POP POP POP JUMP JUMPDEST PUSH2 0xA56 DUP3 DUP3 CALLER PUSH2 0x172E JUMP JUMPDEST POP POP JUMP JUMPDEST CALLER PUSH2 0xA64 DUP3 PUSH2 0xF64 JUMP JUMPDEST PUSH1 0x1 PUSH1 0x1 PUSH1 0xA0 SHL SUB AND EQ PUSH2 0xA8B JUMPI PUSH1 0x40 MLOAD PUSH4 0x30CD7471 PUSH1 0xE0 SHL DUP2 MSTORE PUSH1 0x4 ADD PUSH1 0x40 MLOAD DUP1 SWAP2 SUB SWAP1 REVERT JUMPDEST PUSH0 DUP2 DUP2 MSTORE PUSH1 0xB PUSH1 0x20 MSTORE PUSH1 0x40 DUP1 DUP3 KECCAK256 DUP3 SWAP1 SSTORE MLOAD DUP3 SWAP2 PUSH32 0x945C1C4E99AA89F648FBFE3DF471B916F719E16D960FCEC0737D4D56BD696838 SWAP2 PUSH2 0xACD SWAP2 DUP2 MSTORE PUSH1 0x20 ADD SWAP1 JUMP JUMPDEST PUSH1 0x40 MLOAD DUP1 SWAP2 SUB SWAP1 LOG2 POP JUMP JUMPDEST PUSH0 DUP4 DUP2 MSTORE PUSH1 0xD PUSH1 0x20 MSTORE PUSH1 0x40 SWAP1 KECCAK256 SLOAD PUSH1 0x1 PUSH1 0x1 PUSH1 0xA0 SHL SUB AND CALLER EQ PUSH2 0xB0E JUMPI PUSH1 0x40 MLOAD PUSH4 0x16AAC54F PUSH1 0xE0 SHL DUP2 MSTORE PUSH1 0x4 ADD PUSH1 0x40 MLOAD DUP1 SWAP2 SUB SWAP1 REVERT JUMPDEST PUSH1 0x1 PUSH1 0x1 PUSH1 0xA0 SHL SUB DUP3 AND PUSH2 0xB35 JUMPI PUSH1 0x40 MLOAD PUSH4 0xE6C4247B PUSH1 0xE0 SHL DUP2 MSTORE PUSH1 0x4 ADD PUSH1 0x40 MLOAD DUP1 SWAP2 SUB SWAP1 REVERT JUMPDEST PUSH2 0x2710 DUP2 PUSH1 0x1 PUSH1 0x1 PUSH1 0x60 SHL SUB AND GT ISZERO PUSH2 0xB61 JUMPI PUSH1 0x40 MLOAD PUSH4 0xC2B03BEB PUSH1 0xE0 SHL DUP2 MSTORE PUSH1 0x4 ADD PUSH1 0x40 MLOAD DUP1 SWAP2 SUB SWAP1 REVERT JUMPDEST PUSH1 0x40 DUP1 MLOAD DUP1 DUP3 ADD DUP3 MSTORE PUSH1 0x1 PUSH1 0x1 PUSH1 0xA0 SHL SUB SWAP4 DUP5 AND DUP2 MSTORE PUSH1 0x1 PUSH1 0x1 PUSH1 0x60 SHL SUB SWAP3 DUP4 AND PUSH1 0x20 DUP1 DUP4 ADD SWAP2 DUP3 MSTORE PUSH0 SWAP7 DUP8 MSTORE PUSH1 0xE SWAP1 MSTORE SWAP2 SWAP1 SWAP5 KECCAK256 SWAP4 MLOAD SWAP1 MLOAD SWAP1 SWAP2 AND PUSH1 0x1 PUSH1 0xA0 SHL MUL SWAP2 AND OR SWAP1 SSTORE JUMP JUMPDEST CALLER PUSH2 0xBB4 DUP5 PUSH2 0xF64 JUMP JUMPDEST PUSH1 0x1 PUSH1 0x1 PUSH1 0xA0 SHL SUB AND EQ PUSH2 0xBDB JUMPI PUSH1 0x40 MLOAD PUSH4 0x30CD7471 PUSH1 0xE0 SHL DUP2 MSTORE PUSH1 0x4 ADD PUSH1 0x40 MLOAD DUP1 SWAP2 SUB SWAP1 REVERT JUMPDEST PUSH2 0xC1A DUP4 DUP4 DUP4 DUP1 DUP1 PUSH1 0x1F ADD PUSH1 0x20 DUP1 SWAP2 DIV MUL PUSH1 0x20 ADD PUSH1 0x40 MLOAD SWAP1 DUP2 ADD PUSH1 0x40 MSTORE DUP1 SWAP4 SWAP3 SWAP2 SWAP1 DUP2 DUP2 MSTORE PUSH1 0x20 ADD DUP4 DUP4 DUP1 DUP3 DUP5 CALLDATACOPY PUSH0 SWAP3 ADD SWAP2 SWAP1 SWAP2 MSTORE POP PUSH2 0x16DF SWAP3 POP POP POP JUMP JUMPDEST POP POP POP JUMP JUMPDEST PUSH1 0x1 PUSH1 0x1 PUSH1 0xA0 SHL SUB DUP3 AND PUSH2 0xC4D JUMPI PUSH1 0x40 MLOAD PUSH4 0x32505749 PUSH1 0xE1 SHL DUP2 MSTORE PUSH0 PUSH1 0x4 DUP3 ADD MSTORE PUSH1 0x24 ADD JUMPDEST PUSH1 0x40 MLOAD DUP1 SWAP2 SUB SWAP1 REVERT JUMPDEST PUSH0 PUSH2 0xC59 DUP4 DUP4 CALLER PUSH2 0x173B JUMP JUMPDEST SWAP1 POP DUP4 PUSH1 0x1 PUSH1 0x1 PUSH1 0xA0 SHL SUB AND DUP2 PUSH1 0x1 PUSH1 0x1 PUSH1 0xA0 SHL SUB AND EQ PUSH2 0xCA7 JUMPI PUSH1 0x40 MLOAD PUSH4 0x64283D7B PUSH1 0xE0 SHL DUP2 MSTORE PUSH1 0x1 PUSH1 0x1 PUSH1 0xA0 SHL SUB DUP1 DUP7 AND PUSH1 0x4 DUP4 ADD MSTORE PUSH1 0x24 DUP3 ADD DUP5 SWAP1 MSTORE DUP3 AND PUSH1 0x44 DUP3 ADD MSTORE PUSH1 0x64 ADD PUSH2 0xC44 JUMP JUMPDEST POP POP POP POP JUMP JUMPDEST PUSH0 DUP3 DUP2 MSTORE PUSH1 0xE PUSH1 0x20 SWAP1 DUP2 MSTORE PUSH1 0x40 DUP1 DUP4 KECCAK256 DUP2 MLOAD DUP1 DUP4 ADD SWAP1 SWAP3 MSTORE SLOAD PUSH1 0x1 PUSH1 0x1 PUSH1 0xA0 SHL SUB DUP2 AND DUP1 DUP4 MSTORE PUSH1 0x1 PUSH1 0xA0 SHL SWAP1 SWAP2 DIV PUSH1 0x1 PUSH1 0x1 PUSH1 0x60 SHL SUB AND SWAP3 DUP3 ADD SWAP3 SWAP1 SWAP3 MSTORE DUP3 SWAP2 PUSH2 0xD0A JUMPI PUSH1 0x40 MLOAD PUSH4 0x2F85F355 PUSH1 0xE0 SHL DUP2 MSTORE PUSH1 0x4 ADD PUSH1 0x40 MLOAD DUP1 SWAP2 SUB SWAP1 REVERT JUMPDEST PUSH0 PUSH2 0x2710 DUP3 PUSH1 0x20 ADD MLOAD PUSH1 0x1 PUSH1 0x1 PUSH1 0x60 SHL SUB AND DUP7 PUSH2 0xD27 SWAP2 SWAP1 PUSH2 0x278A JUMP JUMPDEST PUSH2 0xD31 SWAP2 SWAP1 PUSH2 0x2343 JUMP JUMPDEST SWAP2 MLOAD SWAP4 POP SWAP1 SWAP2 POP POP JUMPDEST SWAP3 POP SWAP3 SWAP1 POP JUMP JUMPDEST PUSH2 0xD49 PUSH2 0x15FA JUMP JUMPDEST SELFBALANCE PUSH0 DUP2 SWAP1 SUB PUSH2 0xD6B JUMPI PUSH1 0x40 MLOAD PUSH4 0x43F9E11 PUSH1 0xE4 SHL DUP2 MSTORE PUSH1 0x4 ADD PUSH1 0x40 MLOAD DUP1 SWAP2 SUB SWAP1 REVERT JUMPDEST PUSH1 0x40 MLOAD PUSH0 SWAP1 CALLER SWAP1 DUP4 SWAP1 DUP4 DUP2 DUP2 DUP2 DUP6 DUP8 GAS CALL SWAP3 POP POP POP RETURNDATASIZE DUP1 PUSH0 DUP2 EQ PUSH2 0xDAA JUMPI PUSH1 0x40 MLOAD SWAP2 POP PUSH1 0x1F NOT PUSH1 0x3F RETURNDATASIZE ADD AND DUP3 ADD PUSH1 0x40 MSTORE RETURNDATASIZE DUP3 MSTORE RETURNDATASIZE PUSH0 PUSH1 0x20 DUP5 ADD RETURNDATACOPY PUSH2 0xDAF JUMP JUMPDEST PUSH1 0x60 SWAP2 POP JUMPDEST POP POP SWAP1 POP DUP1 PUSH2 0xDD1 JUMPI PUSH1 0x40 MLOAD PUSH4 0x12171D83 PUSH1 0xE3 SHL DUP2 MSTORE PUSH1 0x4 ADD PUSH1 0x40 MLOAD DUP1 SWAP2 SUB SWAP1 REVERT JUMPDEST CALLER PUSH32 0x7084F5476618D8E60B11EF0D7D3F06914655ADB8793E28FF7F018D4C76D505D5 PUSH2 0xE1D PUSH32 0x0 DUP6 PUSH2 0x2343 JUMP JUMPDEST PUSH1 0x40 MLOAD SWAP1 DUP2 MSTORE PUSH1 0x20 ADD JUMPDEST PUSH1 0x40 MLOAD DUP1 SWAP2 SUB SWAP1 LOG2 POP POP JUMP JUMPDEST PUSH2 0xE3B PUSH2 0x15FA JUMP JUMPDEST PUSH0 PUSH2 0xE66 PUSH32 0x0 DUP4 PUSH2 0x278A JUMP JUMPDEST SWAP1 POP DUP1 ISZERO DUP1 PUSH2 0xE74 JUMPI POP DUP1 SELFBALANCE LT JUMPDEST ISZERO PUSH2 0xE91 JUMPI PUSH1 0x40 MLOAD PUSH3 0xBFC921 PUSH1 0xE0 SHL DUP2 MSTORE PUSH1 0x4 ADD PUSH1 0x40 MLOAD DUP1 SWAP2 SUB SWAP1 REVERT JUMPDEST PUSH0 DUP4 PUSH1 0x1 PUSH1 0x1 PUSH1 0xA0 SHL SUB AND DUP3 PUSH1 0x40 MLOAD PUSH0 PUSH1 0x40 MLOAD DUP1 DUP4 SUB DUP2 DUP6 DUP8 GAS CALL SWAP3 POP POP POP RETURNDATASIZE DUP1 PUSH0 DUP2 EQ PUSH2 0xEDA JUMPI PUSH1 0x40 MLOAD SWAP2 POP PUSH1 0x1F NOT PUSH1 0x3F RETURNDATASIZE ADD AND DUP3 ADD PUSH1 0x40 MSTORE RETURNDATASIZE DUP3 MSTORE RETURNDATASIZE PUSH0 PUSH1 0x20 DUP5 ADD RETURNDATACOPY PUSH2 0xEDF JUMP JUMPDEST PUSH1 0x60 SWAP2 POP JUMPDEST POP POP SWAP1 POP DUP1 PUSH2 0xF01 JUMPI PUSH1 0x40 MLOAD PUSH4 0x12171D83 PUSH1 0xE3 SHL DUP2 MSTORE PUSH1 0x4 ADD PUSH1 0x40 MLOAD DUP1 SWAP2 SUB SWAP1 REVERT JUMPDEST DUP4 PUSH1 0x1 PUSH1 0x1 PUSH1 0xA0 SHL SUB AND PUSH32 0xD7DEE2702D63AD89917B6A4DA9981C90C4D24F8C2BDFD64C604ECAE57D8D0651 DUP5 PUSH1 0x40 MLOAD PUSH2 0xF3C SWAP2 DUP2 MSTORE PUSH1 0x20 ADD SWAP1 JUMP JUMPDEST PUSH1 0x40 MLOAD DUP1 SWAP2 SUB SWAP1 LOG2 POP POP POP POP JUMP JUMPDEST PUSH2 0xC1A DUP4 DUP4 DUP4 PUSH1 0x40 MLOAD DUP1 PUSH1 0x20 ADD PUSH1 0x40 MSTORE DUP1 PUSH0 DUP2 MSTORE POP PUSH2 0x1081 JUMP JUMPDEST PUSH0 PUSH2 0x806 DUP3 PUSH2 0x15C2 JUMP JUMPDEST PUSH0 PUSH1 0x1 PUSH1 0x1 PUSH1 0xA0 SHL SUB DUP3 AND PUSH2 0xF98 JUMPI PUSH1 0x40 MLOAD PUSH4 0x22718AD9 PUSH1 0xE2 SHL DUP2 MSTORE PUSH0 PUSH1 0x4 DUP3 ADD MSTORE PUSH1 0x24 ADD PUSH2 0xC44 JUMP JUMPDEST POP PUSH1 0x1 PUSH1 0x1 PUSH1 0xA0 SHL SUB AND PUSH0 SWAP1 DUP2 MSTORE PUSH1 0x3 PUSH1 0x20 MSTORE PUSH1 0x40 SWAP1 KECCAK256 SLOAD SWAP1 JUMP JUMPDEST PUSH2 0xFBB PUSH2 0x15FA JUMP JUMPDEST PUSH2 0xFC4 PUSH0 PUSH2 0x182D JUMP JUMPDEST JUMP JUMPDEST PUSH0 PUSH2 0x806 PUSH32 0x0 DUP4 PUSH2 0x2343 JUMP JUMPDEST PUSH0 PUSH0 PUSH0 PUSH0 PUSH2 0xFFE DUP6 PUSH2 0xF64 JUMP JUMPDEST PUSH0 SWAP6 DUP7 MSTORE PUSH1 0xD PUSH1 0x20 SWAP1 DUP2 MSTORE PUSH1 0x40 DUP1 DUP9 KECCAK256 SLOAD PUSH1 0xB DUP4 MSTORE DUP2 DUP10 KECCAK256 SLOAD PUSH1 0xC SWAP1 SWAP4 MSTORE SWAP8 KECCAK256 SLOAD SWAP2 SWAP8 PUSH1 0x1 PUSH1 0x1 PUSH1 0xA0 SHL SUB SWAP1 SWAP8 AND SWAP7 SWAP1 SWAP6 POP PUSH1 0xFF SWAP1 SWAP2 AND SWAP4 POP SWAP2 POP POP JUMP JUMPDEST PUSH0 PUSH2 0x806 PUSH32 0x0 DUP4 PUSH2 0x278A JUMP JUMPDEST PUSH1 0x60 PUSH1 0x1 DUP1 SLOAD PUSH2 0x81A SWAP1 PUSH2 0x2724 JUMP JUMPDEST PUSH2 0xA56 CALLER DUP4 DUP4 PUSH2 0x187E JUMP JUMPDEST PUSH2 0x108C DUP5 DUP5 DUP5 PUSH2 0xC1F JUMP JUMPDEST PUSH2 0xCA7 CALLER DUP6 DUP6 DUP6 DUP6 PUSH2 0x191C JUMP JUMPDEST PUSH2 0x10A1 PUSH2 0x15FA JUMP JUMPDEST PUSH1 0x9 SLOAD PUSH1 0xFF AND ISZERO PUSH2 0x10B4 JUMPI PUSH2 0xFC4 PUSH2 0x1A44 JUMP JUMPDEST PUSH2 0xFC4 PUSH2 0x1A96 JUMP JUMPDEST PUSH1 0x60 PUSH2 0x10C7 DUP3 PUSH2 0x15C2 JUMP JUMPDEST POP PUSH0 DUP3 DUP2 MSTORE PUSH1 0x6 PUSH1 0x20 MSTORE PUSH1 0x40 DUP2 KECCAK256 DUP1 SLOAD PUSH2 0x10E0 SWAP1 PUSH2 0x2724 JUMP JUMPDEST DUP1 PUSH1 0x1F ADD PUSH1 0x20 DUP1 SWAP2 DIV MUL PUSH1 0x20 ADD PUSH1 0x40 MLOAD SWAP1 DUP2 ADD PUSH1 0x40 MSTORE DUP1 SWAP3 SWAP2 SWAP1 DUP2 DUP2 MSTORE PUSH1 0x20 ADD DUP3 DUP1 SLOAD PUSH2 0x110C SWAP1 PUSH2 0x2724 JUMP JUMPDEST DUP1 ISZERO PUSH2 0x1157 JUMPI DUP1 PUSH1 0x1F LT PUSH2 0x112E JUMPI PUSH2 0x100 DUP1 DUP4 SLOAD DIV MUL DUP4 MSTORE SWAP2 PUSH1 0x20 ADD SWAP2 PUSH2 0x1157 JUMP JUMPDEST DUP3 ADD SWAP2 SWAP1 PUSH0 MSTORE PUSH1 0x20 PUSH0 KECCAK256 SWAP1 JUMPDEST DUP2 SLOAD DUP2 MSTORE SWAP1 PUSH1 0x1 ADD SWAP1 PUSH1 0x20 ADD DUP1 DUP4 GT PUSH2 0x113A JUMPI DUP3 SWAP1 SUB PUSH1 0x1F AND DUP3 ADD SWAP2 JUMPDEST POP POP POP POP POP SWAP1 POP PUSH0 PUSH2 0x1173 PUSH1 0x40 DUP1 MLOAD PUSH1 0x20 DUP2 ADD SWAP1 SWAP2 MSTORE PUSH0 DUP2 MSTORE SWAP1 JUMP JUMPDEST SWAP1 POP DUP1 MLOAD PUSH0 SUB PUSH2 0x1184 JUMPI POP SWAP3 SWAP2 POP POP JUMP JUMPDEST DUP2 MLOAD ISZERO PUSH2 0x11B6 JUMPI DUP1 DUP3 PUSH1 0x40 MLOAD PUSH1 0x20 ADD PUSH2 0x119E SWAP3 SWAP2 SWAP1 PUSH2 0x27B8 JUMP JUMPDEST PUSH1 0x40 MLOAD PUSH1 0x20 DUP2 DUP4 SUB SUB DUP2 MSTORE SWAP1 PUSH1 0x40 MSTORE SWAP3 POP POP POP SWAP2 SWAP1 POP JUMP JUMPDEST PUSH2 0xA43 DUP5 PUSH2 0x1AD3 JUMP JUMPDEST PUSH2 0x11C7 PUSH2 0x15FA JUMP JUMPDEST SELFBALANCE DUP1 ISZERO PUSH2 0x1295 JUMPI PUSH0 PUSH2 0x11E1 PUSH1 0x7 SLOAD PUSH1 0x1 PUSH1 0x1 PUSH1 0xA0 SHL SUB AND SWAP1 JUMP JUMPDEST PUSH1 0x1 PUSH1 0x1 PUSH1 0xA0 SHL SUB AND DUP3 PUSH1 0x40 MLOAD PUSH0 PUSH1 0x40 MLOAD DUP1 DUP4 SUB DUP2 DUP6 DUP8 GAS CALL SWAP3 POP POP POP RETURNDATASIZE DUP1 PUSH0 DUP2 EQ PUSH2 0x1228 JUMPI PUSH1 0x40 MLOAD SWAP2 POP PUSH1 0x1F NOT PUSH1 0x3F RETURNDATASIZE ADD AND DUP3 ADD PUSH1 0x40 MSTORE RETURNDATASIZE DUP3 MSTORE RETURNDATASIZE PUSH0 PUSH1 0x20 DUP5 ADD RETURNDATACOPY PUSH2 0x122D JUMP JUMPDEST PUSH1 0x60 SWAP2 POP JUMPDEST POP POP SWAP1 POP DUP1 PUSH2 0x124F JUMPI PUSH1 0x40 MLOAD PUSH4 0x12171D83 PUSH1 0xE3 SHL DUP2 MSTORE PUSH1 0x4 ADD PUSH1 0x40 MLOAD DUP1 SWAP2 SUB SWAP1 REVERT JUMPDEST PUSH1 0x7 SLOAD PUSH1 0x1 PUSH1 0x1 PUSH1 0xA0 SHL SUB AND PUSH1 0x1 PUSH1 0x1 PUSH1 0xA0 SHL SUB AND PUSH32 0x7084F5476618D8E60B11EF0D7D3F06914655ADB8793E28FF7F018D4C76D505D5 DUP4 PUSH1 0x40 MLOAD PUSH2 0xE27 SWAP2 DUP2 MSTORE PUSH1 0x20 ADD SWAP1 JUMP JUMPDEST POP JUMP JUMPDEST PUSH1 0x1 PUSH1 0x1 PUSH1 0xA0 SHL SUB SWAP2 DUP3 AND PUSH0 SWAP1 DUP2 MSTORE PUSH1 0x5 PUSH1 0x20 SWAP1 DUP2 MSTORE PUSH1 0x40 DUP1 DUP4 KECCAK256 SWAP4 SWAP1 SWAP5 AND DUP3 MSTORE SWAP2 SWAP1 SWAP2 MSTORE KECCAK256 SLOAD PUSH1 0xFF AND SWAP1 JUMP JUMPDEST PUSH2 0x12CD PUSH2 0x1627 JUMP JUMPDEST PUSH2 0x12D5 PUSH2 0x1680 JUMP JUMPDEST PUSH1 0x9 SLOAD PUSH1 0xFF AND ISZERO PUSH2 0x12F9 JUMPI PUSH1 0x40 MLOAD PUSH4 0x13A5EF3F PUSH1 0xE2 SHL DUP2 MSTORE PUSH1 0x4 ADD PUSH1 0x40 MLOAD DUP1 SWAP2 SUB SWAP1 REVERT JUMPDEST PUSH0 DUP2 DUP2 MSTORE PUSH1 0xB PUSH1 0x20 MSTORE PUSH1 0x40 DUP2 KECCAK256 SLOAD SWAP1 DUP2 SWAP1 SUB PUSH2 0x1328 JUMPI PUSH1 0x40 MLOAD PUSH4 0x1D99DDBF PUSH1 0xE0 SHL DUP2 MSTORE PUSH1 0x4 ADD PUSH1 0x40 MLOAD DUP1 SWAP2 SUB SWAP1 REVERT JUMPDEST PUSH0 PUSH2 0x1332 DUP3 PUSH2 0x103C JUMP JUMPDEST SWAP1 POP DUP1 CALLVALUE LT ISZERO PUSH2 0x1355 JUMPI PUSH1 0x40 MLOAD PUSH4 0xCD1C8867 PUSH1 0xE0 SHL DUP2 MSTORE PUSH1 0x4 ADD PUSH1 0x40 MLOAD DUP1 SWAP2 SUB SWAP1 REVERT JUMPDEST PUSH0 PUSH2 0x135F DUP5 PUSH2 0xF64 JUMP JUMPDEST PUSH0 DUP6 DUP2 MSTORE PUSH1 0xC PUSH1 0x20 MSTORE PUSH1 0x40 SWAP1 KECCAK256 SLOAD SWAP1 SWAP2 POP PUSH1 0xFF AND ISZERO PUSH2 0x139C JUMPI PUSH2 0x1382 DUP5 DUP4 PUSH2 0x1B44 JUMP JUMPDEST PUSH0 DUP5 DUP2 MSTORE PUSH1 0xC PUSH1 0x20 MSTORE PUSH1 0x40 SWAP1 KECCAK256 DUP1 SLOAD PUSH1 0xFF NOT AND SWAP1 SSTORE PUSH2 0x13A7 JUMP JUMPDEST PUSH2 0x13A7 DUP5 DUP4 DUP4 PUSH2 0x1C43 JUMP JUMPDEST PUSH0 PUSH2 0x13B2 DUP4 CALLVALUE PUSH2 0x27CC JUMP JUMPDEST SWAP1 POP DUP1 ISZERO PUSH2 0x145E JUMPI PUSH1 0x40 MLOAD PUSH0 SWAP1 CALLER SWAP1 DUP4 SWAP1 DUP4 DUP2 DUP2 DUP2 DUP6 DUP8 GAS CALL SWAP3 POP POP POP RETURNDATASIZE DUP1 PUSH0 DUP2 EQ PUSH2 0x13F9 JUMPI PUSH1 0x40 MLOAD SWAP2 POP PUSH1 0x1F NOT PUSH1 0x3F RETURNDATASIZE ADD AND DUP3 ADD PUSH1 0x40 MSTORE RETURNDATASIZE DUP3 MSTORE RETURNDATASIZE PUSH0 PUSH1 0x20 DUP5 ADD RETURNDATACOPY PUSH2 0x13FE JUMP JUMPDEST PUSH1 0x60 SWAP2 POP JUMPDEST POP POP SWAP1 POP DUP1 PUSH2 0x1420 JUMPI PUSH1 0x40 MLOAD PUSH4 0x12171D83 PUSH1 0xE3 SHL DUP2 MSTORE PUSH1 0x4 ADD PUSH1 0x40 MLOAD DUP1 SWAP2 SUB SWAP1 REVERT JUMPDEST CALLER PUSH32 0xD7DEE2702D63AD89917B6A4DA9981C90C4D24F8C2BDFD64C604ECAE57D8D0651 PUSH2 0x144B DUP5 PUSH2 0xFC6 JUMP JUMPDEST PUSH1 0x40 MLOAD SWAP1 DUP2 MSTORE PUSH1 0x20 ADD PUSH1 0x40 MLOAD DUP1 SWAP2 SUB SWAP1 LOG2 POP JUMPDEST PUSH2 0x1469 DUP3 CALLER DUP8 PUSH2 0x1DD2 JUMP JUMPDEST PUSH0 DUP6 DUP2 MSTORE PUSH1 0xB PUSH1 0x20 MSTORE PUSH1 0x40 DUP1 DUP3 KECCAK256 SWAP2 SWAP1 SWAP2 SSTORE MLOAD CALLER SWAP1 PUSH1 0x1 PUSH1 0x1 PUSH1 0xA0 SHL SUB DUP5 AND SWAP1 DUP8 SWAP1 PUSH32 0x88863D5E20F64464B554931394E2E4B6F09C10015147215BF26B3BA5070ACEBE SWAP1 PUSH2 0x14BA SWAP1 DUP10 DUP2 MSTORE PUSH1 0x20 ADD SWAP1 JUMP JUMPDEST PUSH1 0x40 MLOAD DUP1 SWAP2 SUB SWAP1 LOG4 POP POP POP POP PUSH2 0x1295 PUSH1 0x1 PUSH1 0x8 SSTORE JUMP JUMPDEST PUSH2 0x14D8 PUSH2 0x15FA JUMP JUMPDEST PUSH1 0x1 PUSH1 0x1 PUSH1 0xA0 SHL SUB DUP2 AND PUSH2 0x1501 JUMPI PUSH1 0x40 MLOAD PUSH4 0x1E4FBDF7 PUSH1 0xE0 SHL DUP2 MSTORE PUSH0 PUSH1 0x4 DUP3 ADD MSTORE PUSH1 0x24 ADD PUSH2 0xC44 JUMP JUMPDEST PUSH2 0x1295 DUP2 PUSH2 0x182D JUMP JUMPDEST CALLER PUSH2 0x1514 DUP4 PUSH2 0xF64 JUMP JUMPDEST PUSH1 0x1 PUSH1 0x1 PUSH1 0xA0 SHL SUB AND EQ PUSH2 0x153B JUMPI PUSH1 0x40 MLOAD PUSH4 0x30CD7471 PUSH1 0xE0 SHL DUP2 MSTORE PUSH1 0x4 ADD PUSH1 0x40 MLOAD DUP1 SWAP2 SUB SWAP1 REVERT JUMPDEST DUP1 PUSH0 SUB PUSH2 0x155A JUMPI PUSH1 0x40 MLOAD PUSH3 0xBFC921 PUSH1 0xE0 SHL DUP2 MSTORE PUSH1 0x4 ADD PUSH1 0x40 MLOAD DUP1 SWAP2 SUB SWAP1 REVERT JUMPDEST PUSH0 DUP3 DUP2 MSTORE PUSH1 0xB PUSH1 0x20 MSTORE PUSH1 0x40 SWAP1 DUP2 SWAP1 KECCAK256 DUP3 SWAP1 SSTORE MLOAD DUP3 SWAP1 PUSH32 0x945C1C4E99AA89F648FBFE3DF471B916F719E16D960FCEC0737D4D56BD696838 SWAP1 PUSH2 0xE27 SWAP1 DUP5 DUP2 MSTORE PUSH1 0x20 ADD SWAP1 JUMP JUMPDEST PUSH0 PUSH1 0x1 PUSH1 0x1 PUSH1 0xE0 SHL SUB NOT DUP3 AND PUSH4 0x24832483 PUSH1 0xE1 SHL EQ DUP1 PUSH2 0x806 JUMPI POP PUSH2 0x806 DUP3 PUSH2 0x1E7F JUMP JUMPDEST PUSH0 DUP2 DUP2 MSTORE PUSH1 0x2 PUSH1 0x20 MSTORE PUSH1 0x40 DUP2 KECCAK256 SLOAD PUSH1 0x1 PUSH1 0x1 PUSH1 0xA0 SHL SUB AND DUP1 PUSH2 0x806 JUMPI PUSH1 0x40 MLOAD PUSH4 0x7E273289 PUSH1 0xE0 SHL DUP2 MSTORE PUSH1 0x4 DUP2 ADD DUP5 SWAP1 MSTORE PUSH1 0x24 ADD PUSH2 0xC44 JUMP JUMPDEST PUSH1 0x7 SLOAD PUSH1 0x1 PUSH1 0x1 PUSH1 0xA0 SHL SUB AND CALLER EQ PUSH2 0xFC4 JUMPI PUSH1 0x40 MLOAD PUSH4 0x118CDAA7 PUSH1 0xE0 SHL DUP2 MSTORE CALLER PUSH1 0x4 DUP3 ADD MSTORE PUSH1 0x24 ADD PUSH2 0xC44 JUMP JUMPDEST PUSH1 0x2 PUSH1 0x8 SLOAD SUB PUSH2 0x1679 JUMPI PUSH1 0x40 MLOAD PUSH3 0x461BCD PUSH1 0xE5 SHL DUP2 MSTORE PUSH1 0x20 PUSH1 0x4 DUP3 ADD MSTORE PUSH1 0x1F PUSH1 0x24 DUP3 ADD MSTORE PUSH32 0x5265656E7472616E637947756172643A207265656E7472616E742063616C6C00 PUSH1 0x44 DUP3 ADD MSTORE PUSH1 0x64 ADD PUSH2 0xC44 JUMP JUMPDEST PUSH1 0x2 PUSH1 0x8 SSTORE JUMP JUMPDEST PUSH1 0x9 SLOAD PUSH1 0xFF AND ISZERO PUSH2 0xFC4 JUMPI PUSH1 0x40 MLOAD PUSH3 0x461BCD PUSH1 0xE5 SHL DUP2 MSTORE PUSH1 0x20 PUSH1 0x4 DUP3 ADD MSTORE PUSH1 0x10 PUSH1 0x24 DUP3 ADD MSTORE PUSH16 0x14185D5CD8589B194E881C185D5CD959 PUSH1 0x82 SHL PUSH1 0x44 DUP3 ADD MSTORE PUSH1 0x64 ADD PUSH2 0xC44 JUMP JUMPDEST PUSH2 0xA56 DUP3 DUP3 PUSH1 0x40 MLOAD DUP1 PUSH1 0x20 ADD PUSH1 0x40 MSTORE DUP1 PUSH0 DUP2 MSTORE POP PUSH2 0x1ECE JUMP JUMPDEST PUSH0 DUP3 DUP2 MSTORE PUSH1 0x6 PUSH1 0x20 MSTORE PUSH1 0x40 SWAP1 KECCAK256 PUSH2 0x16F6 DUP3 DUP3 PUSH2 0x2823 JUMP JUMPDEST POP PUSH1 0x40 MLOAD DUP3 DUP2 MSTORE PUSH32 0xF8E1A15ABA9398E019F0B49DF1A4FDE98EE17AE345CB5F6B5E2C27F5033E8CE7 SWAP1 PUSH1 0x20 ADD PUSH1 0x40 MLOAD DUP1 SWAP2 SUB SWAP1 LOG1 POP POP JUMP JUMPDEST PUSH2 0xC1A DUP4 DUP4 DUP4 PUSH1 0x1 PUSH2 0x1EE5 JUMP JUMPDEST PUSH0 DUP3 DUP2 MSTORE PUSH1 0x2 PUSH1 0x20 MSTORE PUSH1 0x40 DUP2 KECCAK256 SLOAD PUSH1 0x1 PUSH1 0x1 PUSH1 0xA0 SHL SUB SWAP1 DUP2 AND SWAP1 DUP4 AND ISZERO PUSH2 0x1767 JUMPI PUSH2 0x1767 DUP2 DUP5 DUP7 PUSH2 0x1FE9 JUMP JUMPDEST PUSH1 0x1 PUSH1 0x1 PUSH1 0xA0 SHL SUB DUP2 AND ISZERO PUSH2 0x17A1 JUMPI PUSH2 0x1782 PUSH0 DUP6 PUSH0 PUSH0 PUSH2 0x1EE5 JUMP JUMPDEST PUSH1 0x1 PUSH1 0x1 PUSH1 0xA0 SHL SUB DUP2 AND PUSH0 SWAP1 DUP2 MSTORE PUSH1 0x3 PUSH1 0x20 MSTORE PUSH1 0x40 SWAP1 KECCAK256 DUP1 SLOAD PUSH0 NOT ADD SWAP1 SSTORE JUMPDEST PUSH1 0x1 PUSH1 0x1 PUSH1 0xA0 SHL SUB DUP6 AND ISZERO PUSH2 0x17CF JUMPI PUSH1 0x1 PUSH1 0x1 PUSH1 0xA0 SHL SUB DUP6 AND PUSH0 SWAP1 DUP2 MSTORE PUSH1 0x3 PUSH1 0x20 MSTORE PUSH1 0x40 SWAP1 KECCAK256 DUP1 SLOAD PUSH1 0x1 ADD SWAP1 SSTORE JUMPDEST PUSH0 DUP5 DUP2 MSTORE PUSH1 0x2 PUSH1 0x20 MSTORE PUSH1 0x40 DUP1 DUP3 KECCAK256 DUP1 SLOAD PUSH1 0x1 PUSH1 0x1 PUSH1 0xA0 SHL SUB NOT AND PUSH1 0x1 PUSH1 0x1 PUSH1 0xA0 SHL SUB DUP10 DUP2 AND SWAP2 DUP3 OR SWAP1 SWAP3 SSTORE SWAP2 MLOAD DUP8 SWAP4 SWAP2 DUP6 AND SWAP2 PUSH32 0xDDF252AD1BE2C89B69C2B068FC378DAA952BA7F163C4A11628F55A4DF523B3EF SWAP2 LOG4 SWAP5 SWAP4 POP POP POP POP JUMP JUMPDEST PUSH1 0x7 DUP1 SLOAD PUSH1 0x1 PUSH1 0x1 PUSH1 0xA0 SHL SUB DUP4 DUP2 AND PUSH1 0x1 PUSH1 0x1 PUSH1 0xA0 SHL SUB NOT DUP4 AND DUP2 OR SWAP1 SWAP4 SSTORE PUSH1 0x40 MLOAD SWAP2 AND SWAP2 SWAP1 DUP3 SWAP1 PUSH32 0x8BE0079C531659141344CD1FD0A4F28419497F9722A3DAAFE3B4186F6B6457E0 SWAP1 PUSH0 SWAP1 LOG3 POP POP JUMP JUMPDEST PUSH1 0x1 PUSH1 0x1 PUSH1 0xA0 SHL SUB DUP3 AND PUSH2 0x18B0 JUMPI PUSH1 0x40 MLOAD PUSH4 0xB611743 PUSH1 0xE3 SHL DUP2 MSTORE PUSH1 0x1 PUSH1 0x1 PUSH1 0xA0 SHL SUB DUP4 AND PUSH1 0x4 DUP3 ADD MSTORE PUSH1 0x24 ADD PUSH2 0xC44 JUMP JUMPDEST PUSH1 0x1 PUSH1 0x1 PUSH1 0xA0 SHL SUB DUP4 DUP2 AND PUSH0 DUP2 DUP2 MSTORE PUSH1 0x5 PUSH1 0x20 SWAP1 DUP2 MSTORE PUSH1 0x40 DUP1 DUP4 KECCAK256 SWAP5 DUP8 AND DUP1 DUP5 MSTORE SWAP5 DUP3 MSTORE SWAP2 DUP3 SWAP1 KECCAK256 DUP1 SLOAD PUSH1 0xFF NOT AND DUP7 ISZERO ISZERO SWAP1 DUP2 OR SWAP1 SWAP2 SSTORE SWAP2 MLOAD SWAP2 DUP3 MSTORE PUSH32 0x17307EAB39AB6107E8899845AD3D59BD9653F200F220920489CA2B5937696C31 SWAP2 ADD PUSH1 0x40 MLOAD DUP1 SWAP2 SUB SWAP1 LOG3 POP POP POP JUMP JUMPDEST PUSH1 0x1 PUSH1 0x1 PUSH1 0xA0 SHL SUB DUP4 AND EXTCODESIZE ISZERO PUSH2 0x1A3D JUMPI PUSH1 0x40 MLOAD PUSH4 0xA85BD01 PUSH1 0xE1 SHL DUP2 MSTORE PUSH1 0x1 PUSH1 0x1 PUSH1 0xA0 SHL SUB DUP5 AND SWAP1 PUSH4 0x150B7A02 SWAP1 PUSH2 0x195E SWAP1 DUP9 SWAP1 DUP9 SWAP1 DUP8 SWAP1 DUP8 SWAP1 PUSH1 0x4 ADD PUSH2 0x28DE JUMP JUMPDEST PUSH1 0x20 PUSH1 0x40 MLOAD DUP1 DUP4 SUB DUP2 PUSH0 DUP8 GAS CALL SWAP3 POP POP POP DUP1 ISZERO PUSH2 0x1998 JUMPI POP PUSH1 0x40 DUP1 MLOAD PUSH1 0x1F RETURNDATASIZE SWAP1 DUP2 ADD PUSH1 0x1F NOT AND DUP3 ADD SWAP1 SWAP3 MSTORE PUSH2 0x1995 SWAP2 DUP2 ADD SWAP1 PUSH2 0x291A JUMP JUMPDEST PUSH1 0x1 JUMPDEST PUSH2 0x19FF JUMPI RETURNDATASIZE DUP1 DUP1 ISZERO PUSH2 0x19C5 JUMPI PUSH1 0x40 MLOAD SWAP2 POP PUSH1 0x1F NOT PUSH1 0x3F RETURNDATASIZE ADD AND DUP3 ADD PUSH1 0x40 MSTORE RETURNDATASIZE DUP3 MSTORE RETURNDATASIZE PUSH0 PUSH1 0x20 DUP5 ADD RETURNDATACOPY PUSH2 0x19CA JUMP JUMPDEST PUSH1 0x60 SWAP2 POP JUMPDEST POP DUP1 MLOAD PUSH0 SUB PUSH2 0x19F7 JUMPI PUSH1 0x40 MLOAD PUSH4 0x32505749 PUSH1 0xE1 SHL DUP2 MSTORE PUSH1 0x1 PUSH1 0x1 PUSH1 0xA0 SHL SUB DUP6 AND PUSH1 0x4 DUP3 ADD MSTORE PUSH1 0x24 ADD PUSH2 0xC44 JUMP JUMPDEST DUP1 MLOAD DUP2 PUSH1 0x20 ADD REVERT JUMPDEST PUSH1 0x1 PUSH1 0x1 PUSH1 0xE0 SHL SUB NOT DUP2 AND PUSH4 0xA85BD01 PUSH1 0xE1 SHL EQ PUSH2 0x1A3B JUMPI PUSH1 0x40 MLOAD PUSH4 0x32505749 PUSH1 0xE1 SHL DUP2 MSTORE PUSH1 0x1 PUSH1 0x1 PUSH1 0xA0 SHL SUB DUP6 AND PUSH1 0x4 DUP3 ADD MSTORE PUSH1 0x24 ADD PUSH2 0xC44 JUMP JUMPDEST POP JUMPDEST POP POP POP POP POP JUMP JUMPDEST PUSH2 0x1A4C PUSH2 0x204D JUMP JUMPDEST PUSH1 0x9 DUP1 SLOAD PUSH1 0xFF NOT AND SWAP1 SSTORE PUSH32 0x5DB9EE0A495BF2E6FF9C91A7834C1BA4FDD244A5E8AA4E537BD38AEAE4B073AA CALLER JUMPDEST PUSH1 0x40 MLOAD PUSH1 0x1 PUSH1 0x1 PUSH1 0xA0 SHL SUB SWAP1 SWAP2 AND DUP2 MSTORE PUSH1 0x20 ADD PUSH1 0x40 MLOAD DUP1 SWAP2 SUB SWAP1 LOG1 JUMP JUMPDEST PUSH2 0x1A9E PUSH2 0x1680 JUMP JUMPDEST PUSH1 0x9 DUP1 SLOAD PUSH1 0xFF NOT AND PUSH1 0x1 OR SWAP1 SSTORE PUSH32 0x62E78CEA01BEE320CD4E420270B5EA74000D11B0C9F74754EBDBFC544B05A258 PUSH2 0x1A79 CALLER SWAP1 JUMP JUMPDEST PUSH1 0x60 PUSH2 0x1ADE DUP3 PUSH2 0x15C2 JUMP JUMPDEST POP PUSH0 PUSH2 0x1AF4 PUSH1 0x40 DUP1 MLOAD PUSH1 0x20 DUP2 ADD SWAP1 SWAP2 MSTORE PUSH0 DUP2 MSTORE SWAP1 JUMP JUMPDEST SWAP1 POP PUSH0 DUP2 MLOAD GT PUSH2 0x1B12 JUMPI PUSH1 0x40 MLOAD DUP1 PUSH1 0x20 ADD PUSH1 0x40 MSTORE DUP1 PUSH0 DUP2 MSTORE POP PUSH2 0x1B3D JUMP JUMPDEST DUP1 PUSH2 0x1B1C DUP5 PUSH2 0x2096 JUMP JUMPDEST PUSH1 0x40 MLOAD PUSH1 0x20 ADD PUSH2 0x1B2D SWAP3 SWAP2 SWAP1 PUSH2 0x27B8 JUMP JUMPDEST PUSH1 0x40 MLOAD PUSH1 0x20 DUP2 DUP4 SUB SUB DUP2 MSTORE SWAP1 PUSH1 0x40 MSTORE JUMPDEST SWAP4 SWAP3 POP POP POP JUMP JUMPDEST PUSH0 PUSH1 0x64 PUSH2 0x1B71 PUSH32 0x0 DUP5 PUSH2 0x278A JUMP JUMPDEST PUSH2 0x1B7B SWAP2 SWAP1 PUSH2 0x2343 JUMP JUMPDEST SWAP1 POP PUSH0 PUSH1 0x64 PUSH2 0x1BAA PUSH32 0x0 DUP6 PUSH2 0x278A JUMP JUMPDEST PUSH2 0x1BB4 SWAP2 SWAP1 PUSH2 0x2343 JUMP JUMPDEST SWAP1 POP PUSH0 DUP2 PUSH2 0x1BC2 DUP5 DUP7 PUSH2 0x27CC JUMP JUMPDEST PUSH2 0x1BCC SWAP2 SWAP1 PUSH2 0x27CC JUMP JUMPDEST SWAP1 POP PUSH2 0x1BF8 PUSH32 0x0 DUP5 PUSH2 0x2126 JUMP JUMPDEST PUSH2 0x1C22 PUSH32 0x0 DUP4 PUSH2 0x2126 JUMP JUMPDEST PUSH0 DUP6 DUP2 MSTORE PUSH1 0xD PUSH1 0x20 MSTORE PUSH1 0x40 SWAP1 KECCAK256 SLOAD PUSH2 0x1A3D SWAP1 PUSH1 0x1 PUSH1 0x1 PUSH1 0xA0 SHL SUB AND DUP3 PUSH2 0x2126 JUMP JUMPDEST PUSH0 DUP4 DUP2 MSTORE PUSH1 0xE PUSH1 0x20 SWAP1 DUP2 MSTORE PUSH1 0x40 DUP1 DUP4 KECCAK256 DUP2 MLOAD DUP1 DUP4 ADD SWAP1 SWAP3 MSTORE SLOAD PUSH1 0x1 PUSH1 0x1 PUSH1 0xA0 SHL SUB DUP2 AND DUP3 MSTORE PUSH1 0x1 PUSH1 0xA0 SHL SWAP1 DIV PUSH1 0x1 PUSH1 0x1 PUSH1 0x60 SHL SUB AND SWAP2 DUP2 ADD DUP3 SWAP1 MSTORE SWAP2 SWAP1 PUSH2 0x2710 SWAP1 PUSH2 0x1C8E SWAP1 DUP7 PUSH2 0x278A JUMP JUMPDEST PUSH2 0x1C98 SWAP2 SWAP1 PUSH2 0x2343 JUMP JUMPDEST SWAP1 POP PUSH0 PUSH1 0x64 PUSH2 0x1CC7 PUSH32 0x0 DUP8 PUSH2 0x278A JUMP JUMPDEST PUSH2 0x1CD1 SWAP2 SWAP1 PUSH2 0x2343 JUMP JUMPDEST SWAP1 POP PUSH0 PUSH1 0x64 PUSH2 0x1D00 PUSH32 0x0 DUP9 PUSH2 0x278A JUMP JUMPDEST PUSH2 0x1D0A SWAP2 SWAP1 PUSH2 0x2343 JUMP JUMPDEST SWAP1 POP PUSH0 DUP4 DUP3 PUSH2 0x1D19 DUP6 DUP11 PUSH2 0x27CC JUMP JUMPDEST PUSH2 0x1D23 SWAP2 SWAP1 PUSH2 0x27CC JUMP JUMPDEST PUSH2 0x1D2D SWAP2 SWAP1 PUSH2 0x27CC JUMP JUMPDEST SWAP1 POP DUP3 ISZERO PUSH2 0x1D5F JUMPI PUSH2 0x1D5F PUSH32 0x0 DUP5 PUSH2 0x2126 JUMP JUMPDEST DUP2 ISZERO PUSH2 0x1D8F JUMPI PUSH2 0x1D8F PUSH32 0x0 DUP4 PUSH2 0x2126 JUMP JUMPDEST PUSH0 DUP5 GT DUP1 ISZERO PUSH2 0x1DA7 JUMPI POP DUP5 MLOAD PUSH1 0x1 PUSH1 0x1 PUSH1 0xA0 SHL SUB AND ISZERO ISZERO JUMPDEST ISZERO PUSH2 0x1DB8 JUMPI DUP5 MLOAD PUSH2 0x1DB8 SWAP1 DUP6 PUSH2 0x2126 JUMP JUMPDEST DUP1 ISZERO PUSH2 0x1DC8 JUMPI PUSH2 0x1DC8 DUP7 DUP3 PUSH2 0x2126 JUMP JUMPDEST POP POP POP POP POP POP POP POP JUMP JUMPDEST PUSH1 0x1 PUSH1 0x1 PUSH1 0xA0 SHL SUB DUP3 AND PUSH2 0x1DFB JUMPI PUSH1 0x40 MLOAD PUSH4 0x32505749 PUSH1 0xE1 SHL DUP2 MSTORE PUSH0 PUSH1 0x4 DUP3 ADD MSTORE PUSH1 0x24 ADD PUSH2 0xC44 JUMP JUMPDEST PUSH0 PUSH2 0x1E07 DUP4 DUP4 PUSH0 PUSH2 0x173B JUMP JUMPDEST SWAP1 POP PUSH1 0x1 PUSH1 0x1 PUSH1 0xA0 SHL SUB DUP2 AND PUSH2 0x1E33 JUMPI PUSH1 0x40 MLOAD PUSH4 0x7E273289 PUSH1 0xE0 SHL DUP2 MSTORE PUSH1 0x4 DUP2 ADD DUP4 SWAP1 MSTORE PUSH1 0x24 ADD PUSH2 0xC44 JUMP JUMPDEST DUP4 PUSH1 0x1 PUSH1 0x1 PUSH1 0xA0 SHL SUB AND DUP2 PUSH1 0x1 PUSH1 0x1 PUSH1 0xA0 SHL SUB AND EQ PUSH2 0xCA7 JUMPI PUSH1 0x40 MLOAD PUSH4 0x64283D7B PUSH1 0xE0 SHL DUP2 MSTORE PUSH1 0x1 PUSH1 0x1 PUSH1 0xA0 SHL SUB DUP1 DUP7 AND PUSH1 0x4 DUP4 ADD MSTORE PUSH1 0x24 DUP3 ADD DUP5 SWAP1 MSTORE DUP3 AND PUSH1 0x44 DUP3 ADD MSTORE PUSH1 0x64 ADD PUSH2 0xC44 JUMP JUMPDEST PUSH0 PUSH1 0x1 PUSH1 0x1 PUSH1 0xE0 SHL SUB NOT DUP3 AND PUSH4 0x80AC58CD PUSH1 0xE0 SHL EQ DUP1 PUSH2 0x1EAF JUMPI POP PUSH1 0x1 PUSH1 0x1 PUSH1 0xE0 SHL SUB NOT DUP3 AND PUSH4 0x5B5E139F PUSH1 0xE0 SHL EQ JUMPDEST DUP1 PUSH2 0x806 JUMPI POP PUSH4 0x1FFC9A7 PUSH1 0xE0 SHL PUSH1 0x1 PUSH1 0x1 PUSH1 0xE0 SHL SUB NOT DUP4 AND EQ PUSH2 0x806 JUMP JUMPDEST PUSH2 0x1ED8 DUP4 DUP4 PUSH2 0x2196 JUMP JUMPDEST PUSH2 0xC1A CALLER PUSH0 DUP6 DUP6 DUP6 PUSH2 0x191C JUMP JUMPDEST DUP1 DUP1 PUSH2 0x1EF9 JUMPI POP PUSH1 0x1 PUSH1 0x1 PUSH1 0xA0 SHL SUB DUP3 AND ISZERO ISZERO JUMPDEST ISZERO PUSH2 0x1FBA JUMPI PUSH0 PUSH2 0x1F08 DUP5 PUSH2 0x15C2 JUMP JUMPDEST SWAP1 POP PUSH1 0x1 PUSH1 0x1 PUSH1 0xA0 SHL SUB DUP4 AND ISZERO DUP1 ISZERO SWAP1 PUSH2 0x1F34 JUMPI POP DUP3 PUSH1 0x1 PUSH1 0x1 PUSH1 0xA0 SHL SUB AND DUP2 PUSH1 0x1 PUSH1 0x1 PUSH1 0xA0 SHL SUB AND EQ ISZERO JUMPDEST DUP1 ISZERO PUSH2 0x1F47 JUMPI POP PUSH2 0x1F45 DUP2 DUP5 PUSH2 0x1298 JUMP JUMPDEST ISZERO JUMPDEST ISZERO PUSH2 0x1F70 JUMPI PUSH1 0x40 MLOAD PUSH4 0xA9FBF51F PUSH1 0xE0 SHL DUP2 MSTORE PUSH1 0x1 PUSH1 0x1 PUSH1 0xA0 SHL SUB DUP5 AND PUSH1 0x4 DUP3 ADD MSTORE PUSH1 0x24 ADD PUSH2 0xC44 JUMP JUMPDEST DUP2 ISZERO PUSH2 0x1FB8 JUMPI DUP4 DUP6 PUSH1 0x1 PUSH1 0x1 PUSH1 0xA0 SHL SUB AND DUP3 PUSH1 0x1 PUSH1 0x1 PUSH1 0xA0 SHL SUB AND PUSH32 0x8C5BE1E5EBEC7D5BD14F71427D1E84F3DD0314C0F7B2291E5B200AC8C7C3B925 PUSH1 0x40 MLOAD PUSH1 0x40 MLOAD DUP1 SWAP2 SUB SWAP1 LOG4 JUMPDEST POP JUMPDEST POP POP PUSH0 SWAP1 DUP2 MSTORE PUSH1 0x4 PUSH1 0x20 MSTORE PUSH1 0x40 SWAP1 KECCAK256 DUP1 SLOAD PUSH1 0x1 PUSH1 0x1 PUSH1 0xA0 SHL SUB NOT AND PUSH1 0x1 PUSH1 0x1 PUSH1 0xA0 SHL SUB SWAP3 SWAP1 SWAP3 AND SWAP2 SWAP1 SWAP2 OR SWAP1 SSTORE JUMP JUMPDEST PUSH2 0x1FF4 DUP4 DUP4 DUP4 PUSH2 0x21F7 JUMP JUMPDEST PUSH2 0xC1A JUMPI PUSH1 0x1 PUSH1 0x1 PUSH1 0xA0 SHL SUB DUP4 AND PUSH2 0x2022 JUMPI PUSH1 0x40 MLOAD PUSH4 0x7E273289 PUSH1 0xE0 SHL DUP2 MSTORE PUSH1 0x4 DUP2 ADD DUP3 SWAP1 MSTORE PUSH1 0x24 ADD PUSH2 0xC44 JUMP JUMPDEST PUSH1 0x40 MLOAD PUSH4 0x177E802F PUSH1 0xE0 SHL DUP2 MSTORE PUSH1 0x1 PUSH1 0x1 PUSH1 0xA0 SHL SUB DUP4 AND PUSH1 0x4 DUP3 ADD MSTORE PUSH1 0x24 DUP2 ADD DUP3 SWAP1 MSTORE PUSH1 0x44 ADD PUSH2 0xC44 JUMP JUMPDEST PUSH1 0x9 SLOAD PUSH1 0xFF AND PUSH2 0xFC4 JUMPI PUSH1 0x40 MLOAD PUSH3 0x461BCD PUSH1 0xE5 SHL DUP2 MSTORE PUSH1 0x20 PUSH1 0x4 DUP3 ADD MSTORE PUSH1 0x14 PUSH1 0x24 DUP3 ADD MSTORE PUSH20 0x14185D5CD8589B194E881B9BDD081C185D5CD959 PUSH1 0x62 SHL PUSH1 0x44 DUP3 ADD MSTORE PUSH1 0x64 ADD PUSH2 0xC44 JUMP JUMPDEST PUSH1 0x60 PUSH0 PUSH2 0x20A2 DUP4 PUSH2 0x2258 JUMP JUMPDEST PUSH1 0x1 ADD SWAP1 POP PUSH0 DUP2 PUSH8 0xFFFFFFFFFFFFFFFF DUP2 GT ISZERO PUSH2 0x20C1 JUMPI PUSH2 0x20C1 PUSH2 0x2507 JUMP JUMPDEST PUSH1 0x40 MLOAD SWAP1 DUP1 DUP3 MSTORE DUP1 PUSH1 0x1F ADD PUSH1 0x1F NOT AND PUSH1 0x20 ADD DUP3 ADD PUSH1 0x40 MSTORE DUP1 ISZERO PUSH2 0x20EB JUMPI PUSH1 0x20 DUP3 ADD DUP2 DUP1 CALLDATASIZE DUP4 CALLDATACOPY ADD SWAP1 POP JUMPDEST POP SWAP1 POP DUP2 DUP2 ADD PUSH1 0x20 ADD JUMPDEST PUSH0 NOT ADD PUSH16 0x181899199A1A9B1B9C1CB0B131B232B3 PUSH1 0x81 SHL PUSH1 0xA DUP7 MOD BYTE DUP2 MSTORE8 PUSH1 0xA DUP6 DIV SWAP5 POP DUP5 PUSH2 0x20F5 JUMPI POP SWAP4 SWAP3 POP POP POP JUMP JUMPDEST PUSH0 DUP3 PUSH1 0x1 PUSH1 0x1 PUSH1 0xA0 SHL SUB AND DUP3 PUSH1 0x40 MLOAD PUSH0 PUSH1 0x40 MLOAD DUP1 DUP4 SUB DUP2 DUP6 DUP8 GAS CALL SWAP3 POP POP POP RETURNDATASIZE DUP1 PUSH0 DUP2 EQ PUSH2 0x216F JUMPI PUSH1 0x40 MLOAD SWAP2 POP PUSH1 0x1F NOT PUSH1 0x3F RETURNDATASIZE ADD AND DUP3 ADD PUSH1 0x40 MSTORE RETURNDATASIZE DUP3 MSTORE RETURNDATASIZE PUSH0 PUSH1 0x20 DUP5 ADD RETURNDATACOPY PUSH2 0x2174 JUMP JUMPDEST PUSH1 0x60 SWAP2 POP JUMPDEST POP POP SWAP1 POP DUP1 PUSH2 0xC1A JUMPI PUSH1 0x40 MLOAD PUSH4 0x12171D83 PUSH1 0xE3 SHL DUP2 MSTORE PUSH1 0x4 ADD PUSH1 0x40 MLOAD DUP1 SWAP2 SUB SWAP1 REVERT JUMPDEST PUSH1 0x1 PUSH1 0x1 PUSH1 0xA0 SHL SUB DUP3 AND PUSH2 0x21BF JUMPI PUSH1 0x40 MLOAD PUSH4 0x32505749 PUSH1 0xE1 SHL DUP2 MSTORE PUSH0 PUSH1 0x4 DUP3 ADD MSTORE PUSH1 0x24 ADD PUSH2 0xC44 JUMP JUMPDEST PUSH0 PUSH2 0x21CB DUP4 DUP4 PUSH0 PUSH2 0x173B JUMP JUMPDEST SWAP1 POP PUSH1 0x1 PUSH1 0x1 PUSH1 0xA0 SHL SUB DUP2 AND ISZERO PUSH2 0xC1A JUMPI PUSH1 0x40 MLOAD PUSH4 0x39E35637 PUSH1 0xE1 SHL DUP2 MSTORE PUSH0 PUSH1 0x4 DUP3 ADD MSTORE PUSH1 0x24 ADD PUSH2 0xC44 JUMP JUMPDEST PUSH0 PUSH1 0x1 PUSH1 0x1 PUSH1 0xA0 SHL SUB DUP4 AND ISZERO DUP1 ISZERO SWAP1 PUSH2 0xA43 JUMPI POP DUP3 PUSH1 0x1 PUSH1 0x1 PUSH1 0xA0 SHL SUB AND DUP5 PUSH1 0x1 PUSH1 0x1 PUSH1 0xA0 SHL SUB AND EQ DUP1 PUSH2 0x2230 JUMPI POP PUSH2 0x2230 DUP5 DUP5 PUSH2 0x1298 JUMP JUMPDEST DUP1 PUSH2 0xA43 JUMPI POP POP PUSH0 SWAP1 DUP2 MSTORE PUSH1 0x4 PUSH1 0x20 MSTORE PUSH1 0x40 SWAP1 KECCAK256 SLOAD PUSH1 0x1 PUSH1 0x1 PUSH1 0xA0 SHL SUB SWAP1 DUP2 AND SWAP2 AND EQ SWAP2 SWAP1 POP JUMP JUMPDEST PUSH0 DUP1 PUSH19 0x184F03E93FF9F4DAA797ED6E38ED64BF6A1F01 PUSH1 0x40 SHL DUP4 LT PUSH2 0x2296 JUMPI PUSH19 0x184F03E93FF9F4DAA797ED6E38ED64BF6A1F01 PUSH1 0x40 SHL DUP4 DIV SWAP3 POP PUSH1 0x40 ADD JUMPDEST PUSH14 0x4EE2D6D415B85ACEF8100000000 DUP4 LT PUSH2 0x22C2 JUMPI PUSH14 0x4EE2D6D415B85ACEF8100000000 DUP4 DIV SWAP3 POP PUSH1 0x20 ADD JUMPDEST PUSH7 0x2386F26FC10000 DUP4 LT PUSH2 0x22E0 JUMPI PUSH7 0x2386F26FC10000 DUP4 DIV SWAP3 POP PUSH1 0x10 ADD JUMPDEST PUSH4 0x5F5E100 DUP4 LT PUSH2 0x22F8 JUMPI PUSH4 0x5F5E100 DUP4 DIV SWAP3 POP PUSH1 0x8 ADD JUMPDEST PUSH2 0x2710 DUP4 LT PUSH2 0x230C JUMPI PUSH2 0x2710 DUP4 DIV SWAP3 POP PUSH1 0x4 ADD JUMPDEST PUSH1 0x64 DUP4 LT PUSH2 0x231E JUMPI PUSH1 0x64 DUP4 DIV SWAP3 POP PUSH1 0x2 ADD JUMPDEST PUSH1 0xA DUP4 LT PUSH2 0x806 JUMPI PUSH1 0x1 ADD SWAP3 SWAP2 POP POP JUMP JUMPDEST PUSH4 0x4E487B71 PUSH1 0xE0 SHL PUSH0 MSTORE PUSH1 0x11 PUSH1 0x4 MSTORE PUSH1 0x24 PUSH0 REVERT JUMPDEST PUSH0 DUP3 PUSH2 0x235D JUMPI PUSH4 0x4E487B71 PUSH1 0xE0 SHL PUSH0 MSTORE PUSH1 0x12 PUSH1 0x4 MSTORE PUSH1 0x24 PUSH0 REVERT JUMPDEST POP DIV SWAP1 JUMP JUMPDEST PUSH1 0x1 PUSH1 0x1 PUSH1 0xE0 SHL SUB NOT DUP2 AND DUP2 EQ PUSH2 0x1295 JUMPI PUSH0 PUSH0 REVERT JUMPDEST PUSH0 PUSH1 0x20 DUP3 DUP5 SUB SLT ISZERO PUSH2 0x2387 JUMPI PUSH0 PUSH0 REVERT JUMPDEST DUP2 CALLDATALOAD PUSH2 0x1B3D DUP2 PUSH2 0x2362 JUMP JUMPDEST PUSH0 DUP2 MLOAD DUP1 DUP5 MSTORE DUP1 PUSH1 0x20 DUP5 ADD PUSH1 0x20 DUP7 ADD MCOPY PUSH0 PUSH1 0x20 DUP3 DUP7 ADD ADD MSTORE PUSH1 0x20 PUSH1 0x1F NOT PUSH1 0x1F DUP4 ADD AND DUP6 ADD ADD SWAP2 POP POP SWAP3 SWAP2 POP POP JUMP JUMPDEST PUSH1 0x20 DUP2 MSTORE PUSH0 PUSH2 0x1B3D PUSH1 0x20 DUP4 ADD DUP5 PUSH2 0x2392 JUMP JUMPDEST PUSH0 PUSH1 0x20 DUP3 DUP5 SUB SLT ISZERO PUSH2 0x23E2 JUMPI PUSH0 PUSH0 REVERT JUMPDEST POP CALLDATALOAD SWAP2 SWAP1 POP JUMP JUMPDEST PUSH1 0x1 PUSH1 0x1 PUSH1 0xA0 SHL SUB DUP2 AND DUP2 EQ PUSH2 0x1295 JUMPI PUSH0 PUSH0 REVERT JUMPDEST PUSH0 PUSH0 DUP4 PUSH1 0x1F DUP5 ADD SLT PUSH2 0x240D JUMPI PUSH0 PUSH0 REVERT JUMPDEST POP DUP2 CALLDATALOAD PUSH8 0xFFFFFFFFFFFFFFFF DUP2 GT ISZERO PUSH2 0x2424 JUMPI PUSH0 PUSH0 REVERT JUMPDEST PUSH1 0x20 DUP4 ADD SWAP2 POP DUP4 PUSH1 0x20 DUP3 DUP6 ADD ADD GT ISZERO PUSH2 0xD3A JUMPI PUSH0 PUSH0 REVERT JUMPDEST PUSH0 PUSH0 PUSH0 PUSH0 PUSH1 0x60 DUP6 DUP8 SUB SLT ISZERO PUSH2 0x244E JUMPI PUSH0 PUSH0 REVERT JUMPDEST DUP5 CALLDATALOAD PUSH2 0x2459 DUP2 PUSH2 0x23E9 JUMP JUMPDEST SWAP4 POP PUSH1 0x20 DUP6 ADD CALLDATALOAD PUSH8 0xFFFFFFFFFFFFFFFF DUP2 GT ISZERO PUSH2 0x2474 JUMPI PUSH0 PUSH0 REVERT JUMPDEST PUSH2 0x2480 DUP8 DUP3 DUP9 ADD PUSH2 0x23FD JUMP JUMPDEST SWAP6 SWAP9 SWAP1 SWAP8 POP SWAP5 SWAP6 PUSH1 0x40 ADD CALLDATALOAD SWAP5 SWAP4 POP POP POP POP JUMP JUMPDEST PUSH0 PUSH0 PUSH1 0x40 DUP4 DUP6 SUB SLT ISZERO PUSH2 0x24A4 JUMPI PUSH0 PUSH0 REVERT JUMPDEST DUP3 CALLDATALOAD PUSH2 0x24AF DUP2 PUSH2 0x23E9 JUMP JUMPDEST SWAP5 PUSH1 0x20 SWAP4 SWAP1 SWAP4 ADD CALLDATALOAD SWAP4 POP POP POP JUMP JUMPDEST PUSH0 PUSH0 PUSH0 PUSH1 0x60 DUP5 DUP7 SUB SLT ISZERO PUSH2 0x24CF JUMPI PUSH0 PUSH0 REVERT JUMPDEST DUP4 CALLDATALOAD SWAP3 POP PUSH1 0x20 DUP5 ADD CALLDATALOAD PUSH2 0x24E1 DUP2 PUSH2 0x23E9 JUMP JUMPDEST SWAP2 POP PUSH1 0x40 DUP5 ADD CALLDATALOAD PUSH1 0x1 PUSH1 0x1 PUSH1 0x60 SHL SUB DUP2 AND DUP2 EQ PUSH2 0x24FC JUMPI PUSH0 PUSH0 REVERT JUMPDEST DUP1 SWAP2 POP POP SWAP3 POP SWAP3 POP SWAP3 JUMP JUMPDEST PUSH4 0x4E487B71 PUSH1 0xE0 SHL PUSH0 MSTORE PUSH1 0x41 PUSH1 0x4 MSTORE PUSH1 0x24 PUSH0 REVERT JUMPDEST PUSH0 PUSH0 PUSH0 PUSH0 PUSH1 0x80 DUP6 DUP8 SUB SLT ISZERO PUSH2 0x252E JUMPI PUSH0 PUSH0 REVERT JUMPDEST DUP5 CALLDATALOAD PUSH2 0x2539 DUP2 PUSH2 0x23E9 JUMP JUMPDEST SWAP4 POP PUSH1 0x20 DUP6 ADD CALLDATALOAD PUSH2 0x2549 DUP2 PUSH2 0x23E9 JUMP JUMPDEST SWAP3 POP PUSH1 0x40 DUP6 ADD CALLDATALOAD SWAP2 POP PUSH1 0x60 DUP6 ADD CALLDATALOAD PUSH8 0xFFFFFFFFFFFFFFFF DUP2 GT ISZERO PUSH2 0x256B JUMPI PUSH0 PUSH0 REVERT JUMPDEST DUP6 ADD PUSH1 0x1F DUP2 ADD DUP8 SGT PUSH2 0x257B JUMPI PUSH0 PUSH0 REVERT JUMPDEST DUP1 CALLDATALOAD PUSH8 0xFFFFFFFFFFFFFFFF DUP2 GT ISZERO PUSH2 0x2595 JUMPI PUSH2 0x2595 PUSH2 0x2507 JUMP JUMPDEST PUSH1 0x40 MLOAD PUSH1 0x1F DUP3 ADD PUSH1 0x1F NOT SWAP1 DUP2 AND PUSH1 0x3F ADD AND DUP2 ADD PUSH8 0xFFFFFFFFFFFFFFFF DUP2 GT DUP3 DUP3 LT OR ISZERO PUSH2 0x25C4 JUMPI PUSH2 0x25C4 PUSH2 0x2507 JUMP JUMPDEST PUSH1 0x40 MSTORE DUP2 DUP2 MSTORE DUP3 DUP3 ADD PUSH1 0x20 ADD DUP10 LT ISZERO PUSH2 0x25DB JUMPI PUSH0 PUSH0 REVERT JUMPDEST DUP2 PUSH1 0x20 DUP5 ADD PUSH1 0x20 DUP4 ADD CALLDATACOPY PUSH0 PUSH1 0x20 DUP4 DUP4 ADD ADD MSTORE DUP1 SWAP4 POP POP POP POP SWAP3 SWAP6 SWAP2 SWAP5 POP SWAP3 POP JUMP JUMPDEST PUSH0 PUSH0 PUSH0 PUSH1 0x40 DUP5 DUP7 SUB SLT ISZERO PUSH2 0x260E JUMPI PUSH0 PUSH0 REVERT JUMPDEST DUP4 CALLDATALOAD SWAP3 POP PUSH1 0x20 DUP5 ADD CALLDATALOAD PUSH8 0xFFFFFFFFFFFFFFFF DUP2 GT ISZERO PUSH2 0x262B JUMPI PUSH0 PUSH0 REVERT JUMPDEST PUSH2 0x2637 DUP7 DUP3 DUP8 ADD PUSH2 0x23FD JUMP JUMPDEST SWAP5 SWAP8 SWAP1 SWAP7 POP SWAP4 SWAP5 POP POP POP POP JUMP JUMPDEST PUSH0 PUSH0 PUSH0 PUSH1 0x60 DUP5 DUP7 SUB SLT ISZERO PUSH2 0x2656 JUMPI PUSH0 PUSH0 REVERT JUMPDEST DUP4 CALLDATALOAD PUSH2 0x2661 DUP2 PUSH2 0x23E9 JUMP JUMPDEST SWAP3 POP PUSH1 0x20 DUP5 ADD CALLDATALOAD PUSH2 0x2671 DUP2 PUSH2 0x23E9 JUMP JUMPDEST SWAP3 SWAP6 SWAP3 SWAP5 POP POP POP PUSH1 0x40 SWAP2 SWAP1 SWAP2 ADD CALLDATALOAD SWAP1 JUMP JUMPDEST PUSH0 PUSH0 PUSH1 0x40 DUP4 DUP6 SUB SLT ISZERO PUSH2 0x2693 JUMPI PUSH0 PUSH0 REVERT JUMPDEST POP POP DUP1 CALLDATALOAD SWAP3 PUSH1 0x20 SWAP1 SWAP2 ADD CALLDATALOAD SWAP2 POP JUMP JUMPDEST PUSH0 PUSH1 0x20 DUP3 DUP5 SUB SLT ISZERO PUSH2 0x26B2 JUMPI PUSH0 PUSH0 REVERT JUMPDEST DUP2 CALLDATALOAD PUSH2 0x1B3D DUP2 PUSH2 0x23E9 JUMP JUMPDEST PUSH0 PUSH0 PUSH1 0x40 DUP4 DUP6 SUB SLT ISZERO PUSH2 0x26CE JUMPI PUSH0 PUSH0 REVERT JUMPDEST DUP3 CALLDATALOAD PUSH2 0x26D9 DUP2 PUSH2 0x23E9 JUMP JUMPDEST SWAP2 POP PUSH1 0x20 DUP4 ADD CALLDATALOAD DUP1 ISZERO ISZERO DUP2 EQ PUSH2 0x26ED JUMPI PUSH0 PUSH0 REVERT JUMPDEST DUP1 SWAP2 POP POP SWAP3 POP SWAP3 SWAP1 POP JUMP JUMPDEST PUSH0 PUSH0 PUSH1 0x40 DUP4 DUP6 SUB SLT ISZERO PUSH2 0x2709 JUMPI PUSH0 PUSH0 REVERT JUMPDEST DUP3 CALLDATALOAD PUSH2 0x2714 DUP2 PUSH2 0x23E9 JUMP JUMPDEST SWAP2 POP PUSH1 0x20 DUP4 ADD CALLDATALOAD PUSH2 0x26ED DUP2 PUSH2 0x23E9 JUMP JUMPDEST PUSH1 0x1 DUP2 DUP2 SHR SWAP1 DUP3 AND DUP1 PUSH2 0x2738 JUMPI PUSH1 0x7F DUP3 AND SWAP2 POP JUMPDEST PUSH1 0x20 DUP3 LT DUP2 SUB PUSH2 0x2756 JUMPI PUSH4 0x4E487B71 PUSH1 0xE0 SHL PUSH0 MSTORE PUSH1 0x22 PUSH1 0x4 MSTORE PUSH1 0x24 PUSH0 REVERT JUMPDEST POP SWAP2 SWAP1 POP JUMP JUMPDEST PUSH1 0x20 DUP2 MSTORE DUP2 PUSH1 0x20 DUP3 ADD MSTORE DUP2 DUP4 PUSH1 0x40 DUP4 ADD CALLDATACOPY PUSH0 DUP2 DUP4 ADD PUSH1 0x40 SWAP1 DUP2 ADD SWAP2 SWAP1 SWAP2 MSTORE PUSH1 0x1F SWAP1 SWAP3 ADD PUSH1 0x1F NOT AND ADD ADD SWAP2 SWAP1 POP JUMP JUMPDEST DUP1 DUP3 MUL DUP2 ISZERO DUP3 DUP3 DIV DUP5 EQ OR PUSH2 0x806 JUMPI PUSH2 0x806 PUSH2 0x232F JUMP JUMPDEST PUSH0 DUP2 MLOAD DUP1 PUSH1 0x20 DUP5 ADD DUP6 MCOPY PUSH0 SWAP4 ADD SWAP3 DUP4 MSTORE POP SWAP1 SWAP2 SWAP1 POP JUMP JUMPDEST PUSH0 PUSH2 0xA43 PUSH2 0x27C6 DUP4 DUP7 PUSH2 0x27A1 JUMP JUMPDEST DUP5 PUSH2 0x27A1 JUMP JUMPDEST DUP2 DUP2 SUB DUP2 DUP2 GT ISZERO PUSH2 0x806 JUMPI PUSH2 0x806 PUSH2 0x232F JUMP JUMPDEST PUSH1 0x1F DUP3 GT ISZERO PUSH2 0xC1A JUMPI DUP1 PUSH0 MSTORE PUSH1 0x20 PUSH0 KECCAK256 PUSH1 0x1F DUP5 ADD PUSH1 0x5 SHR DUP2 ADD PUSH1 0x20 DUP6 LT ISZERO PUSH2 0x2804 JUMPI POP DUP1 JUMPDEST PUSH1 0x1F DUP5 ADD PUSH1 0x5 SHR DUP3 ADD SWAP2 POP JUMPDEST DUP2 DUP2 LT ISZERO PUSH2 0x1A3D JUMPI PUSH0 DUP2 SSTORE PUSH1 0x1 ADD PUSH2 0x2810 JUMP JUMPDEST DUP2 MLOAD PUSH8 0xFFFFFFFFFFFFFFFF DUP2 GT ISZERO PUSH2 0x283D JUMPI PUSH2 0x283D PUSH2 0x2507 JUMP JUMPDEST PUSH2 0x2851 DUP2 PUSH2 0x284B DUP5 SLOAD PUSH2 0x2724 JUMP JUMPDEST DUP5 PUSH2 0x27DF JUMP JUMPDEST PUSH1 0x20 PUSH1 0x1F DUP3 GT PUSH1 0x1 DUP2 EQ PUSH2 0x2883 JUMPI PUSH0 DUP4 ISZERO PUSH2 0x286C JUMPI POP DUP5 DUP3 ADD MLOAD JUMPDEST PUSH0 NOT PUSH1 0x3 DUP6 SWAP1 SHL SHR NOT AND PUSH1 0x1 DUP5 SWAP1 SHL OR DUP5 SSTORE PUSH2 0x1A3D JUMP JUMPDEST PUSH0 DUP5 DUP2 MSTORE PUSH1 0x20 DUP2 KECCAK256 PUSH1 0x1F NOT DUP6 AND SWAP2 JUMPDEST DUP3 DUP2 LT ISZERO PUSH2 0x28B2 JUMPI DUP8 DUP6 ADD MLOAD DUP3 SSTORE PUSH1 0x20 SWAP5 DUP6 ADD SWAP5 PUSH1 0x1 SWAP1 SWAP3 ADD SWAP2 ADD PUSH2 0x2892 JUMP JUMPDEST POP DUP5 DUP3 LT ISZERO PUSH2 0x28CF JUMPI DUP7 DUP5 ADD MLOAD PUSH0 NOT PUSH1 0x3 DUP8 SWAP1 SHL PUSH1 0xF8 AND SHR NOT AND DUP2 SSTORE JUMPDEST POP POP POP POP PUSH1 0x1 SWAP1 DUP2 SHL ADD SWAP1 SSTORE POP JUMP JUMPDEST PUSH1 0x1 PUSH1 0x1 PUSH1 0xA0 SHL SUB DUP6 DUP2 AND DUP3 MSTORE DUP5 AND PUSH1 0x20 DUP3 ADD MSTORE PUSH1 0x40 DUP2 ADD DUP4 SWAP1 MSTORE PUSH1 0x80 PUSH1 0x60 DUP3 ADD DUP2 SWAP1 MSTORE PUSH0 SWAP1 PUSH2 0x2910 SWAP1 DUP4 ADD DUP5 PUSH2 0x2392 JUMP JUMPDEST SWAP7 SWAP6 POP POP POP POP POP POP JUMP JUMPDEST PUSH0 PUSH1 0x20 DUP3 DUP5 SUB SLT ISZERO PUSH2 0x292A JUMPI PUSH0 PUSH0 REVERT JUMPDEST DUP2 MLOAD PUSH2 0x1B3D DUP2 PUSH2 0x2362 JUMP INVALID LOG2 PUSH5 0x6970667358 0x22 SLT KECCAK256 CALLER DELEGATECALL COINBASE 0xD9 0xA6 ORIGIN PUSH0 0xB7 0xDE PUSH2 0x246E 0xFB 0xCC CALLDATASIZE NUMBER LOG4 DUP11 RETURNDATASIZE MOD BASEFEE 0xF9 SWAP3 SELFBALANCE KECCAK256 0xE7 PUSH9 0xA9769C9B3464736F6C PUSH4 0x4300081C STOP CALLER "
		},
		"gasEstimates": {
			"creation": {
				"codeDepositCost": "2120600",
				"executionCost": "infinite",
				"totalCost": "infinite"
			},
			"external": {
				"": "infinite",
				"approve(address,uint256)": "31480",
				"balanceOf(address)": "2625",
				"charity()": "infinite",
				"developer()": "infinite",
				"emergencyWithdraw()": "infinite",
				"getApproved(uint256)": "infinite",
				"getRoyaltyDetails(uint256)": "2694",
				"getTokenInfo(uint256)": "infinite",
				"gweiToWei(uint256)": "infinite",
				"isApprovedForAll(address,address)": "infinite",
				"mintNFT(address,string,uint256)": "infinite",
				"name()": "infinite",
				"onERC721Received(address,address,uint256,bytes)": "infinite",
				"owner()": "2375",
				"ownerOf(uint256)": "infinite",
				"paused()": "2403",
				"purchase(uint256)": "infinite",
				"refund(address,uint256)": "infinite",
				"removeFromSale(uint256)": "infinite",
				"renounceOwnership()": "infinite",
				"royaltyInfo(uint256,uint256)": "2994",
				"safeTransferFrom(address,address,uint256)": "infinite",
				"safeTransferFrom(address,address,uint256,bytes)": "infinite",
				"setApprovalForAll(address,bool)": "26782",
				"setPrice(uint256,uint256)": "infinite",
				"setRoyaltyInfo(uint256,address,uint96)": "25106",
				"supportsInterface(bytes4)": "infinite",
				"symbol()": "infinite",
				"togglePause()": "infinite",
				"tokenURI(uint256)": "infinite",
				"transferFrom(address,address,uint256)": "infinite",
				"transferOwnership(address)": "infinite",
				"updateTokenURI(uint256,string)": "infinite",
				"weiToGwei(uint256)": "infinite",
				"withdraw()": "infinite"
			},
			"internal": {
				"_handleFirstSale(uint256,uint256)": "infinite",
				"_handleSecondarySale(uint256,uint256,address payable)": "infinite",
				"_safeTransfer(address payable,uint256)": "infinite"
			}
		},
		"methodIdentifiers": {
			"approve(address,uint256)": "095ea7b3",
			"balanceOf(address)": "70a08231",
			"charity()": "934aa023",
			"developer()": "ca4b208b",
			"emergencyWithdraw()": "db2e21bc",
			"getApproved(uint256)": "081812fc",
			"getRoyaltyDetails(uint256)": "12fb2d2d",
			"getTokenInfo(uint256)": "8c7a63ae",
			"gweiToWei(uint256)": "8dfd0b03",
			"isApprovedForAll(address,address)": "e985e9c5",
			"mintNFT(address,string,uint256)": "08598df0",
			"name()": "06fdde03",
			"onERC721Received(address,address,uint256,bytes)": "150b7a02",
			"owner()": "8da5cb5b",
			"ownerOf(uint256)": "6352211e",
			"paused()": "5c975abb",
			"purchase(uint256)": "efef39a1",
			"refund(address,uint256)": "410085df",
			"removeFromSale(uint256)": "1361a3b6",
			"renounceOwnership()": "715018a6",
			"royaltyInfo(uint256,uint256)": "2a55205a",
			"safeTransferFrom(address,address,uint256)": "42842e0e",
			"safeTransferFrom(address,address,uint256,bytes)": "b88d4fde",
			"setApprovalForAll(address,bool)": "a22cb465",
			"setPrice(uint256,uint256)": "f7d97577",
			"setRoyaltyInfo(uint256,address,uint96)": "1495fa99",
			"supportsInterface(bytes4)": "01ffc9a7",
			"symbol()": "95d89b41",
			"togglePause()": "c4ae3168",
			"tokenURI(uint256)": "c87b56dd",
			"transferFrom(address,address,uint256)": "23b872dd",
			"transferOwnership(address)": "f2fde38b",
			"updateTokenURI(uint256,string)": "18e97fd1",
			"weiToGwei(uint256)": "8a61f4fb",
			"withdraw()": "3ccfd60b"
		}
	},
	"abi": [
		{
			"inputs": [
				{
					"internalType": "address payable",
					"name": "_developer",
					"type": "address"
				},
				{
					"internalType": "address payable",
					"name": "_charity",
					"type": "address"
				}
			],
			"stateMutability": "nonpayable",
			"type": "constructor"
		},
		{
			"inputs": [
				{
					"internalType": "address",
					"name": "sender",
					"type": "address"
				},
				{
					"internalType": "uint256",
					"name": "tokenId",
					"type": "uint256"
				},
				{
					"internalType": "address",
					"name": "owner",
					"type": "address"
				}
			],
			"name": "ERC721IncorrectOwner",
			"type": "error"
		},
		{
			"inputs": [
				{
					"internalType": "address",
					"name": "operator",
					"type": "address"
				},
				{
					"internalType": "uint256",
					"name": "tokenId",
					"type": "uint256"
				}
			],
			"name": "ERC721InsufficientApproval",
			"type": "error"
		},
		{
			"inputs": [
				{
					"internalType": "address",
					"name": "approver",
					"type": "address"
				}
			],
			"name": "ERC721InvalidApprover",
			"type": "error"
		},
		{
			"inputs": [
				{
					"internalType": "address",
					"name": "operator",
					"type": "address"
				}
			],
			"name": "ERC721InvalidOperator",
			"type": "error"
		},
		{
			"inputs": [
				{
					"internalType": "address",
					"name": "owner",
					"type": "address"
				}
			],
			"name": "ERC721InvalidOwner",
			"type": "error"
		},
		{
			"inputs": [
				{
					"internalType": "address",
					"name": "receiver",
					"type": "address"
				}
			],
			"name": "ERC721InvalidReceiver",
			"type": "error"
		},
		{
			"inputs": [
				{
					"internalType": "address",
					"name": "sender",
					"type": "address"
				}
			],
			"name": "ERC721InvalidSender",
			"type": "error"
		},
		{
			"inputs": [
				{
					"internalType": "uint256",
					"name": "tokenId",
					"type": "uint256"
				}
			],
			"name": "ERC721NonexistentToken",
			"type": "error"
		},
		{
			"inputs": [],
			"name": "EmergencyStop",
			"type": "error"
		},
		{
			"inputs": [],
			"name": "InsufficientPayment",
			"type": "error"
		},
		{
			"inputs": [],
			"name": "InvalidAddress",
			"type": "error"
		},
		{
			"inputs": [],
			"name": "InvalidPrice",
			"type": "error"
		},
		{
			"inputs": [],
			"name": "NoFunds",
			"type": "error"
		},
		{
			"inputs": [],
			"name": "NoRoyaltiesSet",
			"type": "error"
		},
		{
			"inputs": [],
			"name": "NotAuthor",
			"type": "error"
		},
		{
			"inputs": [],
			"name": "NotForSale",
			"type": "error"
		},
		{
			"inputs": [],
			"name": "NotOwner",
			"type": "error"
		},
		{
			"inputs": [
				{
					"internalType": "address",
					"name": "owner",
					"type": "address"
				}
			],
			"name": "OwnableInvalidOwner",
			"type": "error"
		},
		{
			"inputs": [
				{
					"internalType": "address",
					"name": "account",
					"type": "address"
				}
			],
			"name": "OwnableUnauthorizedAccount",
			"type": "error"
		},
		{
			"inputs": [],
			"name": "RoyaltyTooHigh",
			"type": "error"
		},
		{
			"inputs": [],
			"name": "TransferFailed",
			"type": "error"
		},
		{
			"anonymous": false,
			"inputs": [
				{
					"indexed": true,
					"internalType": "address",
					"name": "owner",
					"type": "address"
				},
				{
					"indexed": true,
					"internalType": "address",
					"name": "approved",
					"type": "address"
				},
				{
					"indexed": true,
					"internalType": "uint256",
					"name": "tokenId",
					"type": "uint256"
				}
			],
			"name": "Approval",
			"type": "event"
		},
		{
			"anonymous": false,
			"inputs": [
				{
					"indexed": true,
					"internalType": "address",
					"name": "owner",
					"type": "address"
				},
				{
					"indexed": true,
					"internalType": "address",
					"name": "operator",
					"type": "address"
				},
				{
					"indexed": false,
					"internalType": "bool",
					"name": "approved",
					"type": "bool"
				}
			],
			"name": "ApprovalForAll",
			"type": "event"
		},
		{
			"anonymous": false,
			"inputs": [
				{
					"indexed": false,
					"internalType": "uint256",
					"name": "_fromTokenId",
					"type": "uint256"
				},
				{
					"indexed": false,
					"internalType": "uint256",
					"name": "_toTokenId",
					"type": "uint256"
				}
			],
			"name": "BatchMetadataUpdate",
			"type": "event"
		},
		{
			"anonymous": false,
			"inputs": [
				{
					"indexed": false,
					"internalType": "uint256",
					"name": "_tokenId",
					"type": "uint256"
				}
			],
			"name": "MetadataUpdate",
			"type": "event"
		},
		{
			"anonymous": false,
			"inputs": [
				{
					"indexed": true,
					"internalType": "uint256",
					"name": "tokenId",
					"type": "uint256"
				},
				{
					"indexed": true,
					"internalType": "address",
					"name": "author",
					"type": "address"
				},
				{
					"indexed": false,
					"internalType": "string",
					"name": "tokenURI",
					"type": "string"
				}
			],
			"name": "NFTMinted",
			"type": "event"
		},
		{
			"anonymous": false,
			"inputs": [
				{
					"indexed": true,
					"internalType": "address",
					"name": "previousOwner",
					"type": "address"
				},
				{
					"indexed": true,
					"internalType": "address",
					"name": "newOwner",
					"type": "address"
				}
			],
			"name": "OwnershipTransferred",
			"type": "event"
		},
		{
			"anonymous": false,
			"inputs": [
				{
					"indexed": false,
					"internalType": "address",
					"name": "account",
					"type": "address"
				}
			],
			"name": "Paused",
			"type": "event"
		},
		{
			"anonymous": false,
			"inputs": [
				{
					"indexed": true,
					"internalType": "uint256",
					"name": "tokenId",
					"type": "uint256"
				},
				{
					"indexed": false,
					"internalType": "uint256",
					"name": "newPriceInGwei",
					"type": "uint256"
				}
			],
			"name": "PriceUpdated",
			"type": "event"
		},
		{
			"anonymous": false,
			"inputs": [
				{
					"indexed": true,
					"internalType": "address",
					"name": "sender",
					"type": "address"
				},
				{
					"indexed": false,
					"internalType": "uint256",
					"name": "amountInGwei",
					"type": "uint256"
				}
			],
			"name": "Received",
			"type": "event"
		},
		{
			"anonymous": false,
			"inputs": [
				{
					"indexed": true,
					"internalType": "address",
					"name": "recipient",
					"type": "address"
				},
				{
					"indexed": false,
					"internalType": "uint256",
					"name": "amountInGwei",
					"type": "uint256"
				}
			],
			"name": "Refunded",
			"type": "event"
		},
		{
			"anonymous": false,
			"inputs": [
				{
					"indexed": true,
					"internalType": "uint256",
					"name": "tokenId",
					"type": "uint256"
				},
				{
					"indexed": true,
					"internalType": "address",
					"name": "seller",
					"type": "address"
				},
				{
					"indexed": true,
					"internalType": "address",
					"name": "buyer",
					"type": "address"
				},
				{
					"indexed": false,
					"internalType": "uint256",
					"name": "priceInGwei",
					"type": "uint256"
				}
			],
			"name": "Sale",
			"type": "event"
		},
		{
			"anonymous": false,
			"inputs": [
				{
					"indexed": true,
					"internalType": "address",
					"name": "from",
					"type": "address"
				},
				{
					"indexed": true,
					"internalType": "address",
					"name": "to",
					"type": "address"
				},
				{
					"indexed": true,
					"internalType": "uint256",
					"name": "tokenId",
					"type": "uint256"
				}
			],
			"name": "Transfer",
			"type": "event"
		},
		{
			"anonymous": false,
			"inputs": [
				{
					"indexed": false,
					"internalType": "address",
					"name": "account",
					"type": "address"
				}
			],
			"name": "Unpaused",
			"type": "event"
		},
		{
			"anonymous": false,
			"inputs": [
				{
					"indexed": true,
					"internalType": "address",
					"name": "recipient",
					"type": "address"
				},
				{
					"indexed": false,
					"internalType": "uint256",
					"name": "amountInGwei",
					"type": "uint256"
				}
			],
			"name": "Withdrawn",
			"type": "event"
		},
		{
			"stateMutability": "payable",
			"type": "fallback"
		},
		{
			"inputs": [
				{
					"internalType": "address",
					"name": "to",
					"type": "address"
				},
				{
					"internalType": "uint256",
					"name": "tokenId",
					"type": "uint256"
				}
			],
			"name": "approve",
			"outputs": [],
			"stateMutability": "nonpayable",
			"type": "function"
		},
		{
			"inputs": [
				{
					"internalType": "address",
					"name": "owner",
					"type": "address"
				}
			],
			"name": "balanceOf",
			"outputs": [
				{
					"internalType": "uint256",
					"name": "",
					"type": "uint256"
				}
			],
			"stateMutability": "view",
			"type": "function"
		},
		{
			"inputs": [],
			"name": "charity",
			"outputs": [
				{
					"internalType": "address payable",
					"name": "",
					"type": "address"
				}
			],
			"stateMutability": "view",
			"type": "function"
		},
		{
			"inputs": [],
			"name": "developer",
			"outputs": [
				{
					"internalType": "address payable",
					"name": "",
					"type": "address"
				}
			],
			"stateMutability": "view",
			"type": "function"
		},
		{
			"inputs": [],
			"name": "emergencyWithdraw",
			"outputs": [],
			"stateMutability": "nonpayable",
			"type": "function"
		},
		{
			"inputs": [
				{
					"internalType": "uint256",
					"name": "tokenId",
					"type": "uint256"
				}
			],
			"name": "getApproved",
			"outputs": [
				{
					"internalType": "address",
					"name": "",
					"type": "address"
				}
			],
			"stateMutability": "view",
			"type": "function"
		},
		{
			"inputs": [
				{
					"internalType": "uint256",
					"name": "tokenId",
					"type": "uint256"
				}
			],
			"name": "getRoyaltyDetails",
			"outputs": [
				{
					"internalType": "address",
					"name": "receiver",
					"type": "address"
				},
				{
					"internalType": "uint96",
					"name": "fraction",
					"type": "uint96"
				}
			],
			"stateMutability": "view",
			"type": "function"
		},
		{
			"inputs": [
				{
					"internalType": "uint256",
					"name": "tokenId",
					"type": "uint256"
				}
			],
			"name": "getTokenInfo",
			"outputs": [
				{
					"internalType": "address",
					"name": "owner",
					"type": "address"
				},
				{
					"internalType": "address",
					"name": "author",
					"type": "address"
				},
				{
					"internalType": "uint256",
					"name": "priceInGwei",
					"type": "uint256"
				},
				{
					"internalType": "bool",
					"name": "isFirstSale",
					"type": "bool"
				}
			],
			"stateMutability": "view",
			"type": "function"
		},
		{
			"inputs": [
				{
					"internalType": "uint256",
					"name": "gweiAmount",
					"type": "uint256"
				}
			],
			"name": "gweiToWei",
			"outputs": [
				{
					"internalType": "uint256",
					"name": "",
					"type": "uint256"
				}
			],
			"stateMutability": "pure",
			"type": "function"
		},
		{
			"inputs": [
				{
					"internalType": "address",
					"name": "owner",
					"type": "address"
				},
				{
					"internalType": "address",
					"name": "operator",
					"type": "address"
				}
			],
			"name": "isApprovedForAll",
			"outputs": [
				{
					"internalType": "bool",
					"name": "",
					"type": "bool"
				}
			],
			"stateMutability": "view",
			"type": "function"
		},
		{
			"inputs": [
				{
					"internalType": "address payable",
					"name": "_author",
					"type": "address"
				},
				{
					"internalType": "string",
					"name": "_tokenURI",
					"type": "string"
				},
				{
					"internalType": "uint256",
					"name": "_initialPriceInGwei",
					"type": "uint256"
				}
			],
			"name": "mintNFT",
			"outputs": [
				{
					"internalType": "uint256",
					"name": "",
					"type": "uint256"
				}
			],
			"stateMutability": "nonpayable",
			"type": "function"
		},
		{
			"inputs": [],
			"name": "name",
			"outputs": [
				{
					"internalType": "string",
					"name": "",
					"type": "string"
				}
			],
			"stateMutability": "view",
			"type": "function"
		},
		{
			"inputs": [
				{
					"internalType": "address",
					"name": "",
					"type": "address"
				},
				{
					"internalType": "address",
					"name": "",
					"type": "address"
				},
				{
					"internalType": "uint256",
					"name": "",
					"type": "uint256"
				},
				{
					"internalType": "bytes",
					"name": "",
					"type": "bytes"
				}
			],
			"name": "onERC721Received",
			"outputs": [
				{
					"internalType": "bytes4",
					"name": "",
					"type": "bytes4"
				}
			],
			"stateMutability": "pure",
			"type": "function"
		},
		{
			"inputs": [],
			"name": "owner",
			"outputs": [
				{
					"internalType": "address",
					"name": "",
					"type": "address"
				}
			],
			"stateMutability": "view",
			"type": "function"
		},
		{
			"inputs": [
				{
					"internalType": "uint256",
					"name": "tokenId",
					"type": "uint256"
				}
			],
			"name": "ownerOf",
			"outputs": [
				{
					"internalType": "address",
					"name": "",
					"type": "address"
				}
			],
			"stateMutability": "view",
			"type": "function"
		},
		{
			"inputs": [],
			"name": "paused",
			"outputs": [
				{
					"internalType": "bool",
					"name": "",
					"type": "bool"
				}
			],
			"stateMutability": "view",
			"type": "function"
		},
		{
			"inputs": [
				{
					"internalType": "uint256",
					"name": "tokenId",
					"type": "uint256"
				}
			],
			"name": "purchase",
			"outputs": [],
			"stateMutability": "payable",
			"type": "function"
		},
		{
			"inputs": [
				{
					"internalType": "address payable",
					"name": "recipient",
					"type": "address"
				},
				{
					"internalType": "uint256",
					"name": "amountInGwei",
					"type": "uint256"
				}
			],
			"name": "refund",
			"outputs": [],
			"stateMutability": "nonpayable",
			"type": "function"
		},
		{
			"inputs": [
				{
					"internalType": "uint256",
					"name": "tokenId",
					"type": "uint256"
				}
			],
			"name": "removeFromSale",
			"outputs": [],
			"stateMutability": "nonpayable",
			"type": "function"
		},
		{
			"inputs": [],
			"name": "renounceOwnership",
			"outputs": [],
			"stateMutability": "nonpayable",
			"type": "function"
		},
		{
			"inputs": [
				{
					"internalType": "uint256",
					"name": "tokenId",
					"type": "uint256"
				},
				{
					"internalType": "uint256",
					"name": "salePrice",
					"type": "uint256"
				}
			],
			"name": "royaltyInfo",
			"outputs": [
				{
					"internalType": "address",
					"name": "",
					"type": "address"
				},
				{
					"internalType": "uint256",
					"name": "",
					"type": "uint256"
				}
			],
			"stateMutability": "view",
			"type": "function"
		},
		{
			"inputs": [
				{
					"internalType": "address",
					"name": "from",
					"type": "address"
				},
				{
					"internalType": "address",
					"name": "to",
					"type": "address"
				},
				{
					"internalType": "uint256",
					"name": "tokenId",
					"type": "uint256"
				}
			],
			"name": "safeTransferFrom",
			"outputs": [],
			"stateMutability": "nonpayable",
			"type": "function"
		},
		{
			"inputs": [
				{
					"internalType": "address",
					"name": "from",
					"type": "address"
				},
				{
					"internalType": "address",
					"name": "to",
					"type": "address"
				},
				{
					"internalType": "uint256",
					"name": "tokenId",
					"type": "uint256"
				},
				{
					"internalType": "bytes",
					"name": "data",
					"type": "bytes"
				}
			],
			"name": "safeTransferFrom",
			"outputs": [],
			"stateMutability": "nonpayable",
			"type": "function"
		},
		{
			"inputs": [
				{
					"internalType": "address",
					"name": "operator",
					"type": "address"
				},
				{
					"internalType": "bool",
					"name": "approved",
					"type": "bool"
				}
			],
			"name": "setApprovalForAll",
			"outputs": [],
			"stateMutability": "nonpayable",
			"type": "function"
		},
		{
			"inputs": [
				{
					"internalType": "uint256",
					"name": "tokenId",
					"type": "uint256"
				},
				{
					"internalType": "uint256",
					"name": "newPriceInGwei",
					"type": "uint256"
				}
			],
			"name": "setPrice",
			"outputs": [],
			"stateMutability": "nonpayable",
			"type": "function"
		},
		{
			"inputs": [
				{
					"internalType": "uint256",
					"name": "tokenId",
					"type": "uint256"
				},
				{
					"internalType": "address",
					"name": "receiver",
					"type": "address"
				},
				{
					"internalType": "uint96",
					"name": "royaltyFraction",
					"type": "uint96"
				}
			],
			"name": "setRoyaltyInfo",
			"outputs": [],
			"stateMutability": "nonpayable",
			"type": "function"
		},
		{
			"inputs": [
				{
					"internalType": "bytes4",
					"name": "interfaceId",
					"type": "bytes4"
				}
			],
			"name": "supportsInterface",
			"outputs": [
				{
					"internalType": "bool",
					"name": "",
					"type": "bool"
				}
			],
			"stateMutability": "view",
			"type": "function"
		},
		{
			"inputs": [],
			"name": "symbol",
			"outputs": [
				{
					"internalType": "string",
					"name": "",
					"type": "string"
				}
			],
			"stateMutability": "view",
			"type": "function"
		},
		{
			"inputs": [],
			"name": "togglePause",
			"outputs": [],
			"stateMutability": "nonpayable",
			"type": "function"
		},
		{
			"inputs": [
				{
					"internalType": "uint256",
					"name": "tokenId",
					"type": "uint256"
				}
			],
			"name": "tokenURI",
			"outputs": [
				{
					"internalType": "string",
					"name": "",
					"type": "string"
				}
			],
			"stateMutability": "view",
			"type": "function"
		},
		{
			"inputs": [
				{
					"internalType": "address",
					"name": "from",
					"type": "address"
				},
				{
					"internalType": "address",
					"name": "to",
					"type": "address"
				},
				{
					"internalType": "uint256",
					"name": "tokenId",
					"type": "uint256"
				}
			],
			"name": "transferFrom",
			"outputs": [],
			"stateMutability": "nonpayable",
			"type": "function"
		},
		{
			"inputs": [
				{
					"internalType": "address",
					"name": "newOwner",
					"type": "address"
				}
			],
			"name": "transferOwnership",
			"outputs": [],
			"stateMutability": "nonpayable",
			"type": "function"
		},
		{
			"inputs": [
				{
					"internalType": "uint256",
					"name": "tokenId",
					"type": "uint256"
				},
				{
					"internalType": "string",
					"name": "newURI",
					"type": "string"
				}
			],
			"name": "updateTokenURI",
			"outputs": [],
			"stateMutability": "nonpayable",
			"type": "function"
		},
		{
			"inputs": [
				{
					"internalType": "uint256",
					"name": "weiAmount",
					"type": "uint256"
				}
			],
			"name": "weiToGwei",
			"outputs": [
				{
					"internalType": "uint256",
					"name": "",
					"type": "uint256"
				}
			],
			"stateMutability": "pure",
			"type": "function"
		},
		{
			"inputs": [],
			"name": "withdraw",
			"outputs": [],
			"stateMutability": "nonpayable",
			"type": "function"
		},
		{
			"stateMutability": "payable",
			"type": "receive"
		}
	]
}